:060000000203B20204033A
:03000B0002040BE1
:03001300020413D1
:03001B0002041BC1
:03002300020423B1
:03002B0002042BA1
:0300330002043391
:03003B0002043B81
:0300430002044371
:03004B0002044B61
:0300530002045351
:03005B0002045B41
:0300630002046331
:03006B0002046B21
:0300730002047311
:03007B0002047B01
:03008300020483F1
:03008B0002048BE1
:03009300020493D1
:03009B0002049BC1
:0300A3000204A3B1
:0300AB000204ABA1
:0300B3000204B391
:0803B2007581591200BB80FEA9
:2000BB00AF84C007120330D007758433E5EFF54830E103754802C00712FC00AE82D007EE35
:2000DB0024FFE433F54AD2827549007EFF2082020549EE14FDFE70F5D2B6E54820E619E5F0
:2000FB004A601574382549400F90FFFEE493F5C475C3028F8412040012011880FBD2B6125D
:20011B0003C4AF82C2B6BF21028017BF22028012BF2302800DBF26028008BF29028003BF5A
:20013B00310FC0071203C4AE82D007BE2002800122BF2100500122EF24CE500122EF24DFA1
:20015B00FF240A83F582EF241583F583E473208B9EAAF3305AD3A42323232323231D2003EA
:20017B00010101010202020103030303030303037582811203BA90FFFEE493F5821203BAB0
:20019B0002032412FCB002032412FD400203241203C4AF828F4B754C00754D00754E001280
:2001BB0003C4AE82E4FFFDFCEF424BEE424CED424DEC424E1203C4AF827E008E048F05E4CF
:2001DB00FE424BEE424CED424DEC424E1203C4AF82BF2003020324221203C4AF82C00712EB
:2001FB0003C4AE82D007BE2002800122AB4BAC4CAD4DAE4E054BE4B54B0C054CB54C070511
:20021B004DB54D02054E8F4F8B828C838DF0EE12FD50020324AC4BAD4CAE4DAF4E054BE416
:20023B00B54B0C054CB54C07054DB54D02054E8C828D838EF0EF12FE101203BA02032412E0
:20025B0003C4E582FF24BF5001227E00C3EE9F5019EE2408F9C007C006C0011203C4E58228
:20027B00D001D006D007F70E80E2C0071203C4AE82D007BE20028001227E00C3EE9F400343
:20029B00020324AA4BAB4CAC4DAD4E054BE4B54B0C054CB54C07054DB54D02054EEE2408DE
:2002BB00F9874F8A828B838CF0EDC007C00612FD50D006D0070E80C31203C4AF82C0071204
:2002DB0003C4AE82D007BE203F7E00C3EE9F5035AA4BAB4CAC4DAD4E054BE4B54B0C054C54
:2002FB00B54C07054DB54D02054E8A828B838CF0EDC007C00612FE101203BAD006D0070E78
:20031B0080C943EF10020324227582121203BA7582100203BA75A700C2AF53D9BF75B6406B
:20033B00AEB24306808EB275A900758840758920758E08758D9675981275FF807E5E7F01AE
:20035B00EE24FFFCEF34FFFD8C068D07EC4D70F075EF0675A41075A70F75A41075A700751F
:20037B00E10175A70FAEB14306408EB1AEA14306408EA175A700740F5589FF4307208F8929
:17039B00D28ED299AEE453060F4306018EE4C28875A0FF75E34022B2
:20FC000090F7FEE493FFBF3D0B90F7FFE493FFBFC20280047F0080027F018F8222AC82AD50
:20FC200083AEF0FF8E008F017A007B00C3740398E499E49AE49B4069E8282890FC3F730224
:20FC4000FC7802FC6002FC608C008D017A007B00C3E994F8EA9400EB9400400475820022D3
:20FC60008C008D017A007B00C3E99480EA9400EB94005031758200228C008D017A007B000F
:20FC8000C3E99404EA9400EB940040117E007F00C374FF9C747F9DE49EE49F50087582001F
:20FCA00022758200227582012275B7A575B7F122AF847E038F045304037D008E03EBC4542D
:20FCC000F0FB3395E0FAEB4204EA42058C84BE0102801CBE0202800DBE031E7C007DF47A33
:20FCE000007B80801C7CFF7DFF7A007B8080127CFF7DFF7A007B0480087C017D007A007B08
:20FD000000C3EC9AED9B402EC007C006C005C004C003C00212FCA9D002D003D004D005D034
:20FD200006D007758F038C828D8374FFF0758F00ED24FCFD80CB1EEE600302FCB48F8422AF
:20FD400012FCA9758F0390F80074FFF0758F002285825085835185F052F553858454A850C0
:20FD6000A9517A007B00C374FF98747F99E49AE49B501AA850A9517A007B00C3E894FFE9C5
:20FD800094FFEA9400EB940050034352038550828551838552F0E55312FC1DE5826070A82F
:20FDA00052A953E4FAFBE8494A4B700EAA545302037B004302108A84803EAA545302037B15
:20FDC00000A851E552C4C8C4540F68C8540FC868C8F9E553C454F049E553C4540F5300F091
:20FDE000E4F9FEFFEB3395E0FDFCEA4200EB4201ED4206EC4207888412FCA9758F01AC5015
:20FE0000AD518C828D83E54FF0758F008554842285825585835685F057F558858459A855ED
:20FE2000A9567A007B00C374FF98747F99E49AE49B501AA855A9567A007B00C3E894FFE9F5
:20FE400094FFEA9400EB94005003435703A857A9587A007B00C3740398E499E49AE49B40A1
:20FE600063E8494A4B700EAA595302037B004302108A84803EAA595302037B00A856E557D4
:20FE8000C4C8C4540F68C8540FC868C8F9E558C454F049E558C4540F5300F0E4F9FEFFEB31
:20FEA0003395E0FDFCEA4200EB4201ED4206EC42078884AC55AD568C828D83E493FF85595B
:08FEC000848F82227582FF226B
:02FFFE0091FE72
:1303BA00AF8210990280FB8F992210980280FB85998222A8
:00000001FF

