:0600000002033A020403B2
:03000B0002040BE1
:03001300020413D1
:03001B0002041BC1
:03002300020423B1
:03002B0002042BA1
:0300330002043391
:03003B0002043B81
:0300430002044371
:03004B0002044B61
:0300530002045351
:03005B0002045B41
:0300630002046331
:03006B0002046B21
:0300730002047311
:03007B0002047B01
:03008300020483F1
:03008B0002048BE1
:03009300020493D1
:03009B0002049BC1
:0300A3000204A3B1
:0300AB000204ABA1
:0300B3000204B391
:08033A0075814D1200BB80FE2D
:2000BB001202ABE5EFF54830E10375480212F800E58224FFE433F54AD2827549007FFF20E8
:2000DB0082020549EF14FEFF70F5D296E54820E61AE54A601674382549401012F89F90FBD6
:2000FB00FEE493F5C475C30212040012010B80FBD29612034CAF82C296BF21028017BF2222
:20011B00028012BF2302800DBF26028008BF29028003BF310FC00712034CAE82D007BE20D7
:20013B0002800122BF2100500122EF24CE500122EF24DFFF240A83F582EF241583F583E438
:20015B00739B7E919DC0EA0161979E9E9E9E9E9E989B02010101010102020102020202022A
:20017B0002020275824312034290FBFEE493F58212034202029F12F83802029F12F85E020D
:20019B00029F12034CAF828F4B754C0012034CAF828F06E4424BEE424C12034CAF82BF20F1
:2001BB000302029F2212034CAF82C00712034CAE82D007BE2002800122854B82854C83056D
:2001DB004BE4B54B02054C8F4D12F86E02029F854B82854C83054BE4B54B02054C12F89ABA
:2001FB0012034202029F12034CE582FF24BF5001227E00C3EE9F5019EE2408F9C007C006F6
:20021B00C00112034CE582D001D006D007F70E80E2C00712034CAE82D007BE20667E00C3A1
:20023B00EE9F505C854B82854C83054BE4B54B02054CEE2408F9874DC007C00612F86ED081
:20025B0006D0070E80D912034CAF82C00712034CAE82D007BE202C7E00C3EE9F5022854B64
:20027B0082854C83054BE4B54B02054CC007C00612F89A120342D006D0070E80DC43EF1025
:20029B0002029F2275821212034275821002034275A700C2AF53D9BF75B64075B28F75A919
:2002BB0000758840758920758E08758D9675981275FF807E5E7F01EE24FFFCEF34FFFD8CFE
:2002DB00068D07EC4D70F075EF0675A41075A70F75A41075A70075E101AED44306CF8ED47A
:2002FB00AED54306788ED5AED67EFF8ED675A70FAEA54306F58EA5AEA54306F58EA5AEA6D0
:1F031B004306208EA6AEA64306208EA675A700AEE453060F4306078EE4C28875E3402259
:20F8000090F7FEE493FFBF3D0B90F7FFE493FFBFC20280047F0080027F018F8222AF837489
:20F82000FC2F500574082F5004758200227582012275B7A575B7F1227E007FF4C007C00688
:20F8400012F831D006D007758F038E828F8374FFF0758F00EF24FCFFC3940450DF2212F86C
:20F8600031758F0790000074FFF0758F0022AE82AF83C007C00612F81DE582D006D00760A9
:20F8800018C007C00612F831D006D007758F018E828F83E54DF0758F0022E493F582227FDD
:20F8A000007E008E047D0074DE2CF58274F73DF583C007C00612F89AAD82D006D007BDFFDD
:20F8C000028001220EBE1F0040D990F7FDC00712F89AAE82D007BEFF4D7E00EE90FBDE9317
:20F8E000FD62070EBE1F0040F290FBFDE493FEEFB506337F008F057E0074DE2DFD74F73EF5
:20F90000FEEF90FBDE93F54D8D828E83C00712F86ED0070FBF1F0040DC90FBFDE493F54D3C
:07F9200090F7FD02F86E22D2
:01FBFE009175
:13034200AF8210990280FB8F992210980280FB8599822220
:00000001FF

