:06000000020323020403C9
:03000B0002040BE1
:03001300020413D1
:03001B0002041BC1
:03002300020423B1
:03002B0002042BA1
:0300330002043391
:03003B0002043B81
:0300430002044371
:03004B0002044B61
:0300530002045351
:03005B0002045B41
:0300630002046331
:03006B0002046B21
:0300730002047311
:03007B0002047B01
:03008300020483F1
:03008B0002048BE1
:03009300020493D1
:03009B0002049BC1
:0300A3000204A3B1
:0300AB000204ABA1
:0300B3000204B391
:0803230075814D1200BB80FE44
:2000BB001202A8E5EFF54830E10375480212F800E58224FFE433F54AD2867549007FFF20E7
:2000DB0086020549EF14FEFF70F5C2A0E54820E617E54A601374382549400D90FBFEE49315
:2000FB00F5C475C30212040012010880FBC2A0120335AF82D2A0BF21028017BF2202801209
:20011B00BF2302800DBF26028008BF29028003BF310FC007120335AE82D007BE20028001FF
:20013B0022BF2100500122EF24CE500122EF24DFFF240A83F582EF241583F583E473987B35
:20015B008E9ABDE7FE5E949B9B9B9B9B9B95980201010101010102010202020202020202DE
:20017B0075824D12032B90FBFEE493F58212032B02029C12F83802029C12F85E02029C128D
:20019B000335AF828F4B754C00120335AF828F06E4424BEE424C120335AF82BF20030202E2
:2001BB009C22120335AF82C007120335AE82D007BE2002800122854B82854C83054BE4B5C1
:2001DB004B02054C8F4D12F86E02029C854B82854C83054BE4B54B02054C12F89A12032B61
:2001FB0002029C120335E582FF24BF5001227E00C3EE9F5019EE2408F9C007C006C0011294
:20021B000335E582D001D006D007F70E80E2C007120335AE82D007BE20667E00C3EE9F50C5
:20023B005C854B82854C83054BE4B54B02054CEE2408F9874DC007C00612F86ED006D00781
:20025B000E80D9120335AF82C007120335AE82D007BE202C7E00C3EE9F5022854B82854C1C
:20027B0083054BE4B54B02054CC007C00612F89A12032BD006D0070E80DC43EF1002029CEF
:20029B002275821212032B75821002032B75A700C2AF53D9BF75B64075B28F75A9007588ED
:2002BB0040758920758E08758D9675981275FF807E5E7F01EE24FFFCEF34FFFD8C068D0761
:2002DB00EC4D70F075EF0675A41075A70F75A41075A70075E101AED44306408ED4AED543DD
:2002FB0006608ED5AED64306218ED675A70FAEA64306218EA675A700AEE453060F43060745
:08031B008EE4C28875E3402264
:20F8000090F7FEE493FFBF3D0B90F7FFE493FFBFC20280047F0080027F018F8222AF837489
:20F82000FC2F500574082F5004758200227582012275B7A575B7F1227E007FF4C007C00688
:20F8400012F831D006D007758F038E828F8374FFF0758F00EF24FCFFC3940450DF2212F86C
:20F8600031758F0790000074FFF0758F0022AE82AF83C007C00612F81DE582D006D00760A9
:1FF8800018C007C00612F831D006D007758F018E828F83E54DF0758F0022E493F582225D
:02FBFE0043FEC4
:13032B00AF8210990280FB8F992210980280FB8599822237
:00000001FF

