:08050200C200C201C202C203E3
:20052F00AF829000E9E0700A8F05FE8D828E830246A478067905C3E3F5F0E295F0501A783A
:20054F0006E2FE780604F29000EAE0FCA3E0FDEE2CF582E43DF583EFF022AF83E582900008
:20056F00EDF0EFA3F09000EDE0FEA3E0FF9000EAEEF0EFA3F07806E4F29000ECE07805F237
:20058F009000E97401F0229000E9E4F07806E2F58222AD82AE83AFF08D828E838FF01276E0
:2005AF0017FC700122BC25028003020826C203C202C201C2000DBD00010E8D828E838FF06A
:2005CF00127617FBBB6802800CBB6C10D2000DBD000A0E8007D2020DBD00010E8D828E8382
:2005EF008FF0127617FBBB63028030BB64028018BB6F02802BBB7302800ABB7502800EBB3E
:20060F0078238010D201801D75080A801875080AD2038011750810D203800A750800800536
:20062F00750808D203300171A8811818E624FDFBA8811818A6038B01870909870A09870B01
:20064F001919C005C006C007AA09AB0AAF0B8A828B838FF0127617D007D006D005700302B6
:20066F000837C005C006C007AA09AB0AAF0B8A828B838FF0127617FA0509E4B50902050AC5
:20068F008A82C007C006C00512052FD005D006D007D007D006D00580A930036D300026A8DC
:2006AF00811818E624FCFBA8811818A6038B017801E7F209E708F209E708F209E708F219C2
:2006CF00191902078430021DA8811818E614F9A8811818A60187037801EBF208E4F208F2F9
:2006EF0008F2020784A8811818E624FEFBA8811818A6038B018702098703197801EAF208E8
:20070F00EBF208E4F208F2806C300025A8811818E624FCFBA8811818A6038B017801E7F29A
:20072F0009E708F209E708F209E708F2191919804430021CA8811818E614F9A8811818A644
:20074F000187037801EBF208E4F208F208F28025A8811818E624FEFBA8811818A6038B0148
:20076F008702098703197801EAF208EBF2EB3395E008F208F2E50870030208103003339004
:20078F00070B747CF0E4A3F07440A3F090070EE508F07801E2F58208E2F58308E2F5F0080D
:2007AF00E2C007C006C005126A98D005D006D0078031900734747CF0E4A3F07440A3F090B6
:2007CF000737E508F07801E2F58208E2F58308E2F5F008E2C007C006C005126BABD005D0E3
:2007EF0006D007797CE7FB603F8B82C007C006C005C00112052FD001D005D006D007098055
:20080F00E47801E2F582C007C006C00512052FD005D006D00780118C82C007C006C00512F6
:20082F00052FD005D006D0070DBD00010E0205A7E58124FCFFC007E58124FBF8868208860D
:0A084F00830886F01205A11581222E
:20085900AF827E007D00AB0CAC0D8F021FEA603E8B828C83E0FAA3AB82AC838D01E929F91D
:20087900ED30E716E904F577E99077BA936EFDE5779077BA93F86AFE80D0E904F8E9907610
:1E089900BA936EFDE89076BA93F96AFE80BC8D07E4FDFCEE4205EC42078D828F832293
:2076BA000000102120423063408450A560C670E781089129A14AB16BC18CD1ADE1CEF1EFB0
:2076DA00123102103273225252B5429472F762D693398318B37BA35AD3BDC39CF3FFE3DE70
:2076FA00246234430420140164E674C744A45485A56AB54B85289509E5EEF5CFC5ACD58D30
:20771A00365326721611063076D766F6569546B4B75BA77A97198738F7DFE7FED79DC7BCEF
:20773A0048C458E5688678A70840186128023823C9CCD9EDE98EF9AF89489969A90AB92BAF
:20775A005AF54AD47AB76A961A710A503A332A12DBFDCBDCFBBFEB9E9B798B58BB3BAB1A6F
:20777A006CA67C874CE45CC52C223C030C601C41EDAEFD8FCDECDDCDAD2ABD0B8D689D492F
:20779A007E976EB65ED54EF43E132E321E510E70FF9FEFBEDFDDCFFCBF1BAF3A9F598F78EF
:2077BA00918881A9B1CAA1EBD10CC12DF14EE16F108000A130C220E35004402570466067AF
:2077DA0083B99398A3FBB3DAC33DD31CE37FF35E02B1129022F332D242355214627772566F
:2077FA00B5EAA5CB95A88589F56EE54FD52CC50D34E224C314A0048174666447542444052F
:20781A00A7DBB7FA879997B8E75FF77EC71DD73C26D336F2069116B06657767646155634EE
:20783A00D94CC96DF90EE92F99C889E9B98AA9AB584448657806682718C008E1388228A3AE
:20785A00CB7DDB5CEB3FFB1E8BF99BD8ABBBBB9A4A755A546A377A160AF11AD02AB33A926E
:20787A00FD2EED0FDD6CCD4DBDAAAD8B9DE88DC97C266C075C644C453CA22C831CE00CC12E
:20789A00EF1FFF3ECF5DDF7CAF9BBFBA8FD99FF86E177E364E555E742E933EB20ED11EF0EE
:2008B700AF82900540E0FE9000EF74FFF0A3F08E058E047E0074062CFAE43EFBEA243FF526
:2008D70082EB3405F583EFF074072DFF7D01C3ED9F5066C007ED243FF582E43405F583E0D7
:2008F700FB9000EFE0F9A3E0FA8900E862038B00E8C454F06BF5778A78757900A8777B005F
:2009170088077A00E5786202E5796207EBC40354F8C8C403C868C854F8C868FBE86202EBFC
:200937006207E577C4540FF97B009000EFE96AF0EB6FA3F00DD007809574062CFDE43EFFD4
:20095700ED243FFDEF3405FF9000EFE0FAA3E0FB8A018D828F83E9F074072CFCE43EFEEC01
:20097700243FF582EE3405F5838B02EAF02290053F74FEF09005407409F07807E2FF780707
:2009970004F2900541EFF09005427433F09005437444F0900544746DF07851E2FE08E2FF6B
:2009B700900545EEF0EFA3F0785BE2FE08E2FF90054775F000EE126F7CA3EF126F7C124637
:2009D70069AF8290054B75F000EF126F7C785FE2FF90054975F000EF126F7C7863E2FF9002
:2009F700054A75F000EF126F7C7860E2FF90054C75F000EF126F7C7864E2FF90054D75F051
:200A170000EF126F7C7582B91208B7124326AE82AF83C3EE9411EF940050012278797411B3
:070A3700F290053F0241E7C8
:200A3E00AE82AF83A3E0FDBD09178E828F83E0FCBCFE0E74052EFBE43FFC8B828C83E060F6
:200A5E0038ED24F640398E828F83E0FDBDFD3074072EFCE43FFD8C828D83E0702274082ED8
:200A7E00FCE43FFD8C828D83E0701474092EFEE43FFF8E828F83E070069002EC7401F02272
:200A9E00E5829002EDF09002E9E4F0780AF21246138582238583249002EDE0FDC3E5239423
:200ABE0008E52494005003020C1E900000C005124462AC82D005752608BCFE02800CBCFD40
:200ADE000280079002E9E0F58222BCFD1DAC2674042CF526900002C005124462E582D005C9
:200AFE0030E007AC26740D2CF526900001C005124462858225D00585262775280074FFC373
:200B1E009527FAE49528FC852529752A00C3E5299AE52A64808CF063F08095F04003020C6F
:200B3E001EE5272529FAE528352AFC8D067F009002E9E0F52BC005AB2B7D00EEC39BFEEFDF
:200B5E009DFFC3EE9AEF64808CF063F08095F0D0055003020C1EE5272529FEE528352AFFD2
:200B7E00C3E5239EE5249F5003020C1EC005E5262525FFE52B24EDFCE43401FE787AEFF2A7
:200B9E008C828E83C007C00512449CD005D0079002E9E0FE7810E22EFB08E23400FC7A006E
:200BBE00EE24EDFDE43401FE90074EEDF0EEA3F0E4A3F0900751EFF0E4A3F08B828C838A66
:200BDE00F0C007C005126F08D0059002E9E0FE7810E22EFE08E23400FD8E828D83C005121C
:200BFE000A3ED005D0079002E9E02FF08F067F00E523C39EF523E5249FF524D005020ABA78
:200C1E009002E9E0F58222AF83E5829002F2F0EFA3F01260C3E58260569002EFE0FEA3E0FF
:200C3E00FF9002F1E0FD9002F2E0FBA3E0FC9006D6EDF09006D7EBF0ECA3F09006D974EE78
:200C5E00F07402A3F0E4A3F08E828F8312625FE582601574BAC0E07478C0E07480C0E01235
:200C7E0033061581158115819002EEE0F582229002F2E0FEA3E0FF7D009002EFE0FBA3E022
:200C9E00FC8B2C8C2D8D2E9002F1E0F9F87C0090074EE52CF0E52DA3F0E52EA3F090075126
:200CBE00E8F0ECA3F08E828F838DF0C001126F08D00189822285822F1260C3E582601CE5A5
:200CDE002F24EF400475820022E52F24DF4003752F0FE52F24E05003752F1F9002EBE0704F
:200CFE0003020DAE9002E9E0FEFC7D00E52F24DF5003752F20AA2F7B00C3EA9CEB9D506B36
:200D1E009002E9ECC3952FF09002F4E0FCA3E0FD9002EF74EDF07401A3F09002F1E52FF094
:200D3E008C828D83120C25AD828D30753100E52F24EDFAE43401FB8A338B347535009002B7
:200D5E00E9E0FC7D0090074EE533F0E534A3F0E535A3F0900751ECF0EDA3F09001ED75F0C6
:200D7E0000126F08D205AD308D82229002EBE4F0D2059002F4E0FCA3E0FD9002EF74EDF00B
:200D9E007401A3F09002F1EEF08C828D83020C25C205124613AD82AE833007319002E9E026
:200DBE00FCC3E52F9C500475820022D204C2079002F4E0FAA3E0FB9002EF74EDF07401A3D2
:200DDE00F09002F1ECF08A828B83020C25C204AB2F7C00C3EB9DEC9E50048B058C06900260
:200DFE00E9E4F0ED4E7003F58222900505E07045ED4E603D9002F4E0FBA3E0FC8D02787A69
:200E1E00EAF28B828C83C00212449CE582D00260209002E9EAF09002F4E0FBA3E0FC900288
:200E3E00EFEBF0ECA3F09002F1EAF09001ED020C2575820022780AE2B401028003020ED4A2
:200E5E00BD016FBE006C125BFEAB82AC83780BD3E29BF4B3FBB308E29CF4FC780DC3E29BF3
:200E7E0008E29C50499002E9E0FC04F0EC24EDFCE43401FBC004C003124394AA82D003D09E
:200E9E00048C828B83EAF0780AE4F29002F4E0FBA3E0FC9002E9E0FA9002EF74EDF0740166
:200EBE00A3F09002F1EAF08B828C83020C2575820022780AE4F2780AE27003020F60780A9A
:200EDE00E2FB7C00C3ED9BEE9C5062C006C005125BFEAB82AC83D005D006780BD3E29BF450
:200EFE00B3FBB308E29CF4FC780DC3E29B08E29C50378D04787AECF29001EDC00412449C96
:200F1E00D0049002E9ECF0780AE4F29002F4E0FAA3E0FB9002EF74EDF07401A3F09002F1F5
:200F3E00ECF08A828B83020C25758200229002F4E0FBA3E0FC7810EBF208ECF2852F8202EE
:200F5E000A9EED4E7003021156900000C006C005124462858232D005D00674FEB532028022
:200F7E000A74FDB532028003021124BD0132BE002F9002E9E06003021156780A7401F21236
:200F9E005BFEE5828583F0780BF208E5F0F27808E2FA08E2FB780DEAF208EBF27582002297
:200FBE00900001C006C005124462AB82D005D006780AEBF2BBE6005028C005C0068B027C5B
:200FDE000074192AFAE43CFC780FE2FE7F00C3EE9AEF64808CF063F08095F0D006D0055053
:200FFE0036780AE4F29002E9E0FF04F0EF24EDFFE43401FCC007C006C005C004124394AA3A
:20101E0082D004D005D006D0078F828C83EAF01DBDFF011E020F60780A74082BF274FDB536
:20103E00322F780AE2FF780A74042FF2C374029DE49E501D900002C006C005124462E582B2
:20105E00D005D00630E00A780AE2FF780A740D2FF29002E9E06056125BFEE5828583F078D3
:20107E000BF208E5F0F2780AE2FC7F007808900757E2F008E2A3F08C828F83126FC7E5821B
:20109E008583F0780DF208E5F0F29002F4E0FCA3E0FF9002E9E0FB9002EF74EDF07401A3D0
:2010BE00F09002F1EBF08C828F83020C25780AE2FC7F00C3ED9CEE9F5037125BFEE58285DB
:2010DE0083F0780BF208E5F0F2780AE2FC7F007808900757E2F008E2A3F08C828F83126FFE
:2010FE00C7E5828583F0780DF208E5F0F2758200229002F4E0FCA3E0FF7810ECF208EFF21A
:20111E00852F82020A9E9002E9E0FF04F0EF24EDFFE43401FCC007C006C005C00412439470
:20113E00AB82D004D005D006D0078F828C83EBF01DBDFF011E020F609002F4E0FEA3E0FFC4
:20115E009002E9E0FD9002EF74EDF07401A3F09002F1EDF08E828F83020C25A204E433F5D8
:20117E008222A205E433F58222D20722E5829002F6F0E0780FF222AF83E5829002F7F0EF00
:20119E00A3F09002F7E0FEA3E0FF90073EEEF0EFA3F0E4A3F0A3F090000075F001E4126D1D
:2011BE00B9AC82AD83780874012CF2E43D08F222E5829002FCF09002FBE0703D9002F9E040
:2011DE00FEA3E0FF7D009002FCE0FCFA7B0090074EEEF0EFA3F0EDA3F0900751EAF0EBA300
:2011FE00F09000F175F000C004126F08D0049002EAECF0C206758200222006419002FCE0CC
:20121E00FF9002EAE0FEEFB506339002F9E0FDA3E0FE90076CEDF0EEA3F0E4A3F090076FB3
:20123E00EFF0E4A3F09000F175F0001271F0E5828583F045F07006C20675820122D20675A8
:20125E00820022AF83E5829002FDF0EFA3F07812C3E2F5F074FC95F05005781274FCF29058
:20127E0002FDE0FEA3E0FF90074EEEF0EFA3F0E4A3F07812900751E2F0E4A3F09001ED7587
:15129E00F000126F0878129002E9E2F0C2049002EB7401F02221
:2078BA006572726F72207768696C6520747279696E6720746F20656E637279707420646181
:0378DA00746100D6
:0A050A0078137441F278177464F25C
:2012B300AF82BF08028024BF0D028005BF7F3A801A90000A1246A47814E224FFF582E43462
:2012D30002F583E4F090034604F0227814E27001229000081246A49000201246A4900008E5
:2012F3001246A47814E214F2227814E2B4450050428F067F008E828F83C007C0061273FC0C
:20131300E5828583F0D006D00745F0602E8E828F83127498AE827814E2FF781404F2EF2479
:20133300FFF582E43402F583EEF07F008E828F830246A4900345E4F07814F222AF82BF2BC0
:201353000280047816E4F27816C3E2F5F0740495F0402C7816E275F003A4901371730213F7
:20137300960213800213800213870213967816E22401F22278167404F278177464F22278BF
:2013930016E4F278177464F2227817E260427817E214F27817E270387816E260087816E2E8
:2013B300B4042D800678167401F2229003457401F07816E4F29002FF7441F0900300745466
:2013D300F0900301E4F078147402F290034614F022900346E07001227814E2B40200E43328
:2013F300FF701C9002FFE0FEBE5214900300E0FEBE540C124F4C7814E4F2900346F022EF44
:2014130060030214899002FFE0FFBF41028003021489900300E0FFBF545C900301E0FF606F
:2014330023BF26028023BF2B028023BF49028023BF4F028028BF5002801EBF5302802ABFCC
:201453005A31802A121492802D1217C880281218DF8023121620801E1218DC801978177412
:2014730064F2900345E4F0800D121721800843EF1080FE1214B47814E4F2900346F022749D
:20149300E1C0E07478C0E07480C0E074DDC0E07478C0E07480C0E012083FE58124FAF58134
:2014B3002274E4C0E07478C0E07480C0E074DDC0E07478C0E07480C0E012083FE58124FAF1
:2014D300F58122E5812404F581900348E4F0A3F0A3F0A3F0900347E024FFF582E43402F592
:2014F30083E0FFFDBD300092104075ED24C69210406E900348E0FBA3E0FCA3E0FDA3E0FED9
:20151300900763EBF0ECA3F0EDA3F0EEA3F090000AE4F5F0C0071270D8C8E58124FCC8A623
:201533008208A68308A6F008F6D0077A00EF24D0FFEA34FFFA8F053395E0FEFFE58124FD3F
:20155300F8900348ED26F0EA0836A3F0EE0836A3F0EF0836A3F0900347E02401F00214E79C
:20157300E58124FCF58122E582900351F0E0F50F90034CE0FE750E00C3E50E9E400122C064
:2015930006C00612159B800E90034FE0C0E0A3E0C0E0850E8222A982AA83ABF0FCD006C0DB
:2015B30006C004C003C002C0011215C1800E90034DE0C0E0A3E0C0E0850E8222858210853C
:2015D300831185F012D001D002D003D004D006AE0E7F00A80F7D00C006C001C002C003C082
:2015F30004C010C011C012C006C007C000C00574EAC0E07478C0E07480C0E012083FE58172
:2016130024F2F581D006050ED00602158B900302E0FF6030BF3002802BBF31028048BF327F
:20163300028065BF33030216B8BF34030216D8BF35030216F8BF3603021718BF37030217C3
:201653001B02171E7405C0E0747DC0E07480C0E074DDC0E07478C0E07480C0E012083FE598
:201673008124FAF58122741CC0E0747DC0E07480C0E074DDC0E07478C0E07480C0E01208A0
:201693003FE58124FAF581227481C0E0E4C0E074F7C0E07478C0E07480C0E012083FE581D9
:2016B30024FBF58122784FE2FE7F00C006C00774F7C0E07478C0E07480C0E012083FE581C3
:2016D30024FBF581227850E2FE7F00C006C00774F7C0E07478C0E07480C0E012083FE581A2
:2016F30024FBF5812290034C7411F090034D746BF0742FA3F090034F74EAF0742BA3F07510
:20171300825302157A025A9802485D0214B49003477403F01214D6900348E0FCA3E0FDA3D4
:20173300E0A3E0BC110040030214B4900347E0FF24FFF582E43402F583E0FEBE3D02803BDE
:20175300BE3F6F8C82122BEAAA82AB83ADF0FE900348EAF0EBA3F0EDA3F0EEA3F0C002C02A
:2017730003C005C00674FBC0E07478C0E07480C0E012083FE58124F9F58122EC6034900312
:2017930047EF04F0C0041214D6D004900348E0FBA3E0FDA3E0FEA3E0FF7841EBF208EDF2C2
:2017B30008EEF208EFF28C82122A72E58260030214920214B4900302E0FFBF45030218BCFC
:2017D300BF46028017BF5002805CBF5402805ABF55028014BF570280090218D9122ED1022B
:2017F3001492122E740214929007597400F07479A3F07480A3F090030375F000126FE7E531
:20181300828583F045F0701B75B7A575B7F1758F0390F7FE74FFF0758F00AEEF4306108E16
:20183300EF80FE0214B4024D439007597406F07479A3F07480A3F090030375F000126FE708
:20185300E5828583F045F070057815E4F2229007597407F07479A3F07480A3F0900303757A
:20187300F000126FE7E5828583F045F0700C7815E2FE6306017815EEF222900759740DF026
:201893007479A3F07480A3F090030375F000126FE7E5828583F045F0700C7815E2FE6306E5
:2018B300027815EEF2220214B4900303E0FFBF3D028006BF3F100231D2900304123109E5E6
:2018D3008260030214920214B40214B49003477404F01214D6900302E0FFBF413C90030350
:2018F300E0FFBF3D349003477405F01214D6900348E0FCA3E0FDA3E0FEA3E0FFBC0111BDC2
:1C191300000EBE000BBF000875820212272B800675820312272B0214920214B467
:2078DD0025730A004F4B004552524F5200256325753A25733D256C750A0025750A00256C4F
:1578FD00750A00504441544500003D52535349003D54444D00E9
:20192F00AF83E582900386F0EFA3F0900386E0FEA3E0FF900385E0FD7C008D027B001ABAAC
:20194F00FF011B8C007900C3E89AE964808BF063F08095F05046C007C006C005C004126C49
:20196F00EBAA82D004D005D006D0078DF0EA84E5F02EFAE43FFB8A828B83E0F513C005EC32
:20198F002EF8E43FFD88828D83E0F98A828B83F088828D83E513F00CD005809E22758203D8
:2019AF00122BEA126D63758210122BEAAC82AD83AEF0FFEC4D4E4F601412326185820C855F
:2019CF00830D758220120859AF83026D63227F007818C3E2F5F0EF95F0500FEF2453F5826F
:2019EF00E43403F583EFF00F80E61219AC7818E2FF7E008F047D001CBCFF011D8E027B001B
:201A0F00C3EA9CEB64808DF063F08095F05042C007C006126CEBAC82D006D0078FF0EC8478
:201A2F00E5F02453FCE43403FD8C828D83E0F514C007EE2453FAE43403FF8A828F83E0FBF7
:201A4F008C828D83F08A828F83E514F00ED00780A2227819E22453F582E43403F583E0F570
:201A6F008222781AE22453F582E43403F583E0F582227819E2FE7F000EBE00010F7818E207
:201A8F00FC7D0090075FECF0EDA3F08E828F83C005C004127070AE82D004D0057819EEF285
:201AAF00900352E060077819791AE2F3227819E27022781AE2FE7F000EBE00010F90075F08
:201ACF00ECF0EDA3F08E828F83127070AE82AF83781AEEF222E58290038AF0E0FF90035259
:201AEF00F0EF6007781A7919E2F322781AE2FE7F000EBE00010F781890075FE2F0E4A3F0DA
:0E1B0F008E828F83127070AE82781AEEF222F0
:201B1D00AFF0AE83E582900487F0EEA3F0EFA3F020080475820022781BC3E2F5F074FC95FC
:201B3D00F05005121ECA8047900487E0FDA3E0FEA3E0FF8D828E838FF0781BE2126F7C78FE
:201B5D002CE2FD08E2FE7F0090074E748BF07403A3F0E4A3F0781B900751E2F0E4A3F08D50
:201B7D00828E838FF0126F08121ECA758201227851E2FE08E2FFBEFF05BFFF02800C0EBE2D
:201B9D0000010F7851EEF208EFF275820022AF8275A702C2A3C2FF75A3FF782EE2FD08E272
:201BBD00FE8F041FEC601130F9FD8D828E83E0F5A3A3AD82AE8380E930F9FDAEA153068083
:201BDD007F00BE8005BF000280F1C2FFD2A375A70022200805781CE2600475820122758268
:201BFD00311223B7E58230E4047582012275820022A2A8E433FFC2A81009028009EF24FF79
:201C1D0092A875820122EF24FF92A875820022781DE2F582227582260223B77828E2F582EC
:201C3D00227582081223B7AF828F05430501C007C00575820812237A1581D0075307FEC0AD
:201C5D000775820812237A1581227582081223B7AF828F05430502C007C005758208122340
:201C7D007A1581D0075307FDC00775820812237A158122E582FF24035019C0077412C0E0F9
:201C9D007479C0E07480C0E0123306158115811581D007C007121C3ED007C007C007758293
:201CBD003E12237A1581D007EFFE24DF50027E207830792EE2F308E209F38E82C007C00626
:201CDD00121BABD006D007EFC39EFF7830E22EF208E23400F2C007E4C0E075820512237A63
:201CFD001581E4C0E075820612237A1581C20990048AE4F07409C0E075820712237A15814E
:201D1D00125BFEAD82AE83D007C007C006C005125BFEAB82AC83D005D006D007EBC39DFB23
:201D3D00EC9EFC7832C3E2F5F0EB95F008E2F5F0EC95F04003021E72758203C007C006C000
:201D5D00051223B7AC82D005D006D00790048AE06040EF603DEC30E5397B04BF04005002CD
:201D7D008F037830792EE2F308E209F38B82C007C006C005C003121BABD003D005D006D062
:201D9D0007EFC39BFF7830E22BF208E23400F2021D2690048AE06040EF603DEC20E6397B07
:201DBD0004BF040050028F037830792EE2F308E209F38B82C007C006C005C003121BABD087
:201DDD0003D005D006D007EFC39BFF7830E22BF208E23400F2021D26EC30E722121C3E7810
:201DFD0053E2FB08E2FCBBFF05BCFF02800C0BBB00010C7853EBF208ECF275820022758237
:201E1D0002C007C006C0051223B7AC82D005D006D007EC30E10990048A7401F0021D269057
:201E3D00048AE07003021D26EC30E103021D26EF601F7853E2FE08E2FFBEFF05BFFF028016
:201E5D000C0EBE00010F7853EEF208EFF275820022758201227853E2FE08E2FFBEFF05BFA1
:201E7D00FF02800C0EBE00010F7853EEF208EFF275820022E58290048BF0A2A8E433FFC297
:201E9D00A890048BE0FE78347930E2F308E209F378367932E2F308E209F38E82C007121C57
:201EBD0090AE82D007EF24FF92A88E8222C2A8C208781BE4F2C209781CE4F27413C0E07582
:201EDD00820512237A15817440C0E075820612237A1581122430121C3E121C677405C0E003
:201EFD0075820712237A1581D2A875820122900032125B887582011223B7AF82BFFF0280E2
:201F1D0005BF05005004758200221224907582011223B7E582FF20E003022490EF30E104A1
:201F3D007582012275820022AC82AD83AEF0FFC3ED941CEE944EEF940E400E74C09C74F70C
:201F5D009D74BA9E74379F5004758200227820ECF208EDF208EEF208EFF28C828D838EF07A
:201F7D00EF12250675820122AC82AD83AEF0FFC374F09C74E89D74269EE49F500475820041
:201F9D002278387410F2087427F208E4F208F28C828D838EF0EF12243CAC82AD83AEF0FF77
:201FBD007824ECF208EDF208EEF208EFF2C00475827A12237A158175820122E58290048CB7
:201FDD00F07829E2FFE0FEB50701227829EEF2C00675827912237A1581C209227829E2F554
:201FFD008222AF82C007E4C0E075820512237A1581E4C0E075820612237A158112243074C3
:20201D0015C0E075820B12237A15817412C0E075820C12237A158175820012272B74B6C0F4
:20203D00E075820912237A1581D007EF249B5010C00774C0C0E075825812237A1581D00773
:20205D007820E2FB08E2FC08E2FD08E28B828C838DF0C0071225067824E2FEC00675827AE7
:20207D0012237A1581D007900504E06029C0077488C0E075823012237A15817402C0E075CB
:20209D00823312237A1581E4C0E075823212237A1581D0078040C007748DC0E075823012FF
:2020BD00237A15817422C0E075823312237A1581740CC0E075823212237A158174FFC0E08A
:2020DD0075824312237A158174FFC0E075824412237A1581D007C007743CC0E075827C125E
:2020FD00237A15817420C0E075827D12237A15817432C0E075827E12237A1581782B74107C
:20211D00F2782BE2FEC00675823412237A15817428C0E075823512237A158175820012221F
:20213D00DCD0077E00EE90792F93C39F50060EBE0C0040F1EEFF90792F93FE7828F2BE20B1
:20215D000040047E0D80027E2D75820DC007C006122BEAAA82AB83ACF0FDD006D007EA4BD9
:20217D004C4D60117828E2FD247F40098E047D004304028C06C007C00675827012237A152B
:20219D00817423C0E075827112237A15817444C0E075821D12237A1581D0077828E2FEBEF7
:2021BD00C8005012C007740AC0E075821E12237A1581D0078010C0077402C0E075821E122E
:2021DD00237A1581D007784FE2B4433A7E00EE75F00DA4243CFC747935F0FDEF2CF582E49B
:2021FD003DF583E493FDEE90792393FCC007C006C0058C8212237A1581D006D0070EBE0CC6
:20221D000040CB0222D8784FE2B447397E00EE75F00DA424D8FC747935F0FDEF2CF582E4BE
:20223D003DF583E493FDEE90792393FCC007C006C0058C8212237A1581D006D0070EBE0C85
:20225D000040CB8076784FE2B486397E00EE75F00DA42474FC747A35F0FDEF2CF582E43D6B
:20227D00F583E493FDEE90792393FCC007C006C0058C8212237A1581D006D0070EBE0C0082
:20229D0040CB80377E00EE75F00DA42410FC747B35F0FDEF2CF582E43DF583E493FDEE907F
:2022BD00792393FCC007C006C0058C8212237A1581D006D0070EBE0C0040CB75820122E5A2
:2022DD008290048DF0E0FF7E00EE907BAC93C39F50060EBE080040F190048EEEF0BE080630
:2022FD0090048E7407F090048EE0FF907BAC93FE782AEEF2C00775826D12237A158122785F
:20231D002AE2F58222AF83E58290048FF0EFA3F090048FE0FEA3E0FF8E05781EEDF2781FAB
:20233D00EFF2900504E07034C007C005C00775823A12237A1581D005C005C00575823B1216
:20235D00237A1581D005D007C005C00775823F12237A158175824012237A158122AF82A209
:20237D00A89210C2A875A702C2A3C2FF7E004307808FA330F9FDA881181886A330F9FDAE52
:20239D00A15306807F00BE8005BF000280F1C2FFD2A375A700A21092A822AF82A2A8921035
:2023BD00C2A875A702C2A3C2FF8FA330F9FD75A30030F9FDAEA15306807F00BE8005BF0013
:2023DD000280F1AFA3C2FFD2A375A700A21092A88F8222AF8275A702C2A3C2FF75A37F306E
:2023FD00FFFD85A3E0E58124FDF886050886068F041FEC6016C2FF75A30030FFFD8D828E68
:20241D0083E5A3F0A3AD82AE8380E4C2FFD2A375A700227582031223B77582040223B7AF5D
:20243D0082AE83ADF0FC783CEFF208EEF208EDF208ECF2783BE2C313FF18E213FE18E21367
:20245D00FB18E213FA783CE22AFA08E23BFB08E23EFE08E23FFF783890073EE2F008E2A351
:20247D00F008E2A3F008E2A3F08A828B838EF0EF026DB9E4C0E075820512237A1581E4C03D
:20249D00E075820612237A15811224307481C0E075820712237A1581900002125B4D3081C2
:2024BD000B125B7EE58260F675820022E4C0E075820512237A15817402C0E0758206122326
:2024DD007A1581900014125B4D125B7EE58270157582031223B77582041223B7E58230E155
:2024FD00E8758201227582002285821585831685F017F518C3E4951574389516749C95176D
:20251D00741C951840030225CD851519E51624C8F51AE5173463F51BE51834E3F51C900722
:20253D003EE4F0742DA3F07431A3F07401A3F0851982851A83851BF0E51C126DB9AC82902F
:20255D000491ECF0900763ECF0E4A3F0A3F0A3F0902D0075F03174011270D8AC82AD83AE4C
:20257D00F0FFE519C39CFCE51A9DFDE51B9EFEE51C9FFF78387471F2087402F208E4F20845
:20259D00F28C828D838EF0EF12243CAC82AD83AEF0FFEC2CFCED33FDEE33FEEF33FF90042F
:2025BD0091E0FB7A00430320900491EBF0022695AF15E51624E4FEE51734B1FDE51834F130
:2025DD00FC90073E7480F07496A3F07498A3F0E4A3F08F828E838DF0ECC007C006C005C0D9
:2025FD0004126DB985821985831A85F01BF51CAB19900491EBF0900763EBF0E4A3F0A3F0FC
:20261D00A3F090968075F098E41270D885821985831A85F01BF51CD004D005D006D007EF01
:20263D00C39519F519EE951AF51AED951BF51BEC951CF51C78387471F2087402F208E4F222
:20265D0008F2851982851A83851BF0E51C12243C85821985831A85F01BF51CE5192519FC03
:20267D00E51A33FDE51B33FEE51C33FFEC2CFCED33FDEE33FEEF33FF900491E04440F0C000
:20269D0005C004E0C0E075827512237A1581D004D0058D07C005C004C00775827612237A7A
:2026BD001581D004D005C00475827712237A15812275A70FAEBE7F00EE2EFEEF33FFEE2EB8
:2026DD00FEEF33FFE5BD232354037C004206EC420775A700D2EC20ECFDADBE7C00AABD7BDA
:2026FD0000EA4204EB4205ECC39EFEED9FFF9007747402F0E4A3F08E828F83127328E58267
:20271D008583F0242DFEE435F08E82F58322E582900492F0E0FF24FC4063EF2F90273D73FE
:20273D0080068059805780257418C0E075820D12237A15817582081223B7E582541FFF4325
:20275D000780C00775820812237A1581227582081223B7E582541FFF430720C007758208B4
:20277D0012237A1581740AC0E075820D12237A1581E4C0E075820E12237A158122758208A1
:20279D001223B7E582541FFFC00775820812237A1581740AC0E075820D12237A158174046D
:2027BD00C0E075820E12237A158122C022C0E0C0F0C082C083C007C006C005C004C003C0A0
:2027DD0002C001C000C0D075D0007582041223B7AF82758203C0071223B7AE82D007EE309A
:2027FD00E44D781CE2FC7D0074322CFCE43DFDC374FC9CE49D50030228DA781CE2248BFCE8
:20281D00E43403FDC007C006C004C0057582321223F015811581781CE2FD781C74322DF227
:20283D007582261223B7E582D006D007781DF2EF30E611D209758226C0061223B7E582D0E0
:20285D0006781DF2900504E07004EE20E06FEE30E16975824B1223B7E582FF2403405E784B
:20287D001CC3E2F5F0EF95F04053781CC3E29F5022781CE2248BFDE43403FE781CD3E29F21
:20289D00F4FCC007C005C0068C821223F015811581D007781BEFF2D208E4C0E075820512C3
:2028BD00237A1581E4C0E075820612237A15817402C0E075820712237A1581801E7851E260
:2028DD00FE08E2FFBEFF05BFFF02800C0EBE00010F7851EEF208EFF2121ECAD0D0D000D03E
:1828FD0001D002D003D004D005D006D007D083D082D0F0D0E0D022328E
:207912006F76657273697A6564207061636B6574001C1F2021222324252A6E6F7202040851
:207932001013182030406080C0FA2727272E1601050B9A888A8C8D03030303030303030326
:2079520003030303F4FA7D3F69A77D535E7D5E3F30200001020100010101010102024183E6
:20797200060C37C406895D065D0CAA8912254A4C9C25378625864AAB000102040201020360
:20799200020202040785080E12728A0E18BB0EBBEAFF1D1D1D1E1E1E2030415050505010F6
:2079B2002041839BC4080C101820314062C58912A69C314A6293C5270003060D1A1E26339E
:2079D2004D669ACDFEFE2B2B2B2E1601050B9A888A8C8D03030303030303030303030303BD
:2079F200F4FA7D3F69A77D535E7D5E3F30200001020100010101010102024183060C37C445
:207A120006895D065D0CAA8912254A4C9C25378625864AAB000102040201020302020204C2
:207A32000785080E12728A0E18BB0EBBEAFF1E1E1E21212121304150505050102041839BD3
:207A5200C4080C101820314062C58912A69C314A6293C5270003060D1A1E26334D669ACD62
:207A7200FEFE010101010101050B9A888A8C8D03030303030303030303030303D0E8F4FA50
:207A9200D3A77D535E7D5E3F30E0602000000001010101010202102041839BC406895D0634
:207AB2005D0CAA62C58912A69C25378625864AAB0000000101010203020202040723448516
:207AD20008398A0E18BB0EBBEAFF1C1C1C1C1C1E20304150505050102041839BC4080C1044
:207AF2001820314062C58912A69C314A6293C5270003060D1A1E26334D669ACDFEFE0101AC
:207B120001010101050B9A888A8C8D03030303030303030303030303D0E8F4FAD3A77D5363
:207B32005E7D5E3F30E0602000000001010101010202102041839BC406895D065D0CAA6268
:207B5200C58912A69C25378625864AAB0000000101010203020202040723448508398A0E11
:207B720018BB0EBBEAFF1E1E1E1E1E1E20304150505050102041839BC4080C1018203140C9
:207B920062C58912A69C314A6293C5270003060D1A1E26334D669ACDFEFE010205080B0E8D
:027BB2001114AC
:2029150075B7A575B7F122D310AF01C3C0D0AF848F055305034305308D84C007122915D01A
:2029350007758F0390000074FFF0758F008F84D0D092AF22D310AF01C3C0D0AE82AF83AD72
:20295500848D035303034303308B84758F008E828F83E493FF758F008D848F82D0D092AFCD
:2029750022D310AF01C3C0D0AE82AF83AD848D035303034303308B84C007C006C0051229AC
:1C29950015D005D006D007758F058E828F837840E2F08D84758F00D0D092AF22C2
:02F7FE003DC20A
:2029B100AF82BF1100400475820022EF24F05003022A6EEF2F2F9029CB730229FB0229FF24
:2029D100022A06022A1A022A1E022A32022A46022A32022A6E022A6E022A6E022A6E022A62
:2029F1006E022A6E022A6E022A5A75820022AF368F820246C5C3E4953674019537E495381E
:202A1100E4953950587582002275820122C374149536E49537E49538E49539504075820068
:202A310022C374019536E49537E49538E49539502C75820022C374029536E49537E4953853
:202A5100E49539501875820022C374839536E49537E49538E4953950047582002275820135
:202A710022AF827841E2F53608E2F53708E2F53808E2F5398F82C0071229B1E582D0077075
:202A910003F58222BF0402801FBF0603022B7CBF0703022BC7BF0B02802DBF0C02806FBF03
:202AB1000E03022B91022BC77841E2F582C0071222DC12231CAE82D0077841EEF208E4F28A
:202AD10008F208F2022BC77845E4F208F208F208F278497464F208E4F208F208F27841E284
:202AF100F58208E2F58308E2F5F008E2C007122F9AAB82AC83ADF0FED0077841EBF208EC39
:202B1100F208EDF208EEF27889EBF2022BC77841E2F5F008E242F008E242F008E245F060DA
:202B31004278457419F208E4F208F208F2784974DCF208E4F208F208F27841E2F58208E263
:202B5100F58308E2F5F008E2C007122F9AAB82AC83ADF0FED0077841EBF208ECF208EDF260
:202B710008EEF278417991E2F3804B7841E2FE900505F07841EEF208E4F208F208F28036B5
:202B91007841E2F5F008E242F008E242F008E245F024FFE433FE900506F0EE60067D017E3A
:202BB1000080047D007E007841EDF208EEF2EE3395E008F208F2EF75F004A42493F58274DD
:202BD1000435F0F5837841E2F008E2A3F008E2A3F008E2A3F075820122AF82BF11004007DF
:202BF100900000E4F5F022EF75F004A42493F582740435F0F583E0FCA3E0FDA3E0FEA3E0AA
:202C11008C828D838EF02285823A85833B9004F7E0FCA3E0FD9004F9E0FB8C018D028B006B
:202C31007F00E82CF8EF3DFFC3E998EA9F5041E9C39CFEEA9DFFEE253AFEEF353BFF8982EF
:202C51008A83C007C006C005C004C003C002C001122949A882D001D002D003D004D005D05D
:202C710006D0078E828F83E8F009B900B10A80AE853A0C853B0D8B82C002C001120859AE78
:202C910082AF83D001D002740129FCE43AFD8C828D83C007C006C002C001122949AD82D066
:202CB10001D0028D047D0089828A83C005C004122949AB82D004D005D006D0077A00EB42D3
:202CD10005EA4204EEB50506EFB504028004758200227582012285823C85833D9004FAE0A9
:202CF100FCA3E0FD9004FCE0FB8C3E8D3F8B027F00EA2CFAEF3DFFC3E53E9AE53F9F503636
:202D1100E53EC39CFEE53F9DFFEE253CF582EF353DF5837840E0F2853E82853F83C005C028
:202D310004C003122976D003D004D005053EE4B53EBB053F80B7853C0C853D0D8B8212087B
:202D510059AE82AF837840EEF2853E82853F83C007C006122976D006D0077401253EFCE4E0
:202D7100353FFD7840EFF28C828D83022976D310AF01C3C0D0122ED1900000122949E58207
:202D9100FF24BB4005BF30005006758200022E6F9004F77401F0E4A3F09004F9EFF09004BD
:202DB10093122C18E5827005F582022E6F758200122BEAAC82AD83AEF0FFBC1A0BBD000868
:202DD100BE0005BF00028006758200022E6F7F00EF75F004A42493FD740435F0FE8D828EDB
:202DF10083E0F536A3E0F537A3E0F538A3E0F5398F82C007C006C0051229B1E582D005D0C9
:202E110006D0077032EF75F007A424B4FB747B35F0FC8B828C83A3A3A3E493F9A3E493FAB7
:202E3100A3E493FBA3E493FC8D828E83E9F0EAA3F0EBA3F0ECA3F00FBF440040939004F773
:202E51007481F07401A3F09004F97420F09004D7122C18E5827004F5828003758201D0D035
:202E710092AF22D310AF01C3C0D0900493741AF0E4A3F0A3F0A3F012291C78407444F2906D
:202E910000001229769004FA7401F0E4A3F09004FC7444F0900493122CE778407420F290B4
:202EB10001801229769004FA7481F07401A3F09004FC7420F09004D7122CE7D0D092AF22AD
:202ED1007F00EF75F004A42493FD740435F0FEEF75F007A424B4FB747B35F0FC8B828C8319
:202EF100A3A3A3E493F9A3E493FAA3E493FBA3E493FC8D828E83E9F0EAA3F0EBA3F0ECA3A6
:202F1100F00FBF110040BB22AF827E008F037C007D40EE75F007A424B4F582747B35F0F5E4
:202F310083E493F8A3E493F9A3E493FA900759E8F0E9A3F0EAA3F08B828C838DF0C007C086
:202F510006126FE7E5828583F0D006D00745F060060EBE110040B58E8222AF82BF110050F6
:202F710021EF75F007A424B4F582747B35F0F583E493FDA3E493FEA3E493FF8D828E838FF1
:202F9100F02290000075F00022AC82AD83AEF0FF7845C3E2F5F0EC95F008E2F5F0ED95F003
:202FB10008E2F5F0EE95F008E2F5F0EF95F0500D7845E2FC08E2FD08E2FE08E2FF7849C347
:202FD100E29C08E29D08E29E08E29F500D7849E2FC08E2FD08E2FE08E2FF8C828D838EF07A
:202FF100EF22AF82BF3000400DEF24C640088F06EE24D0F58222BF4100400DEF24B94008B0
:203011008F0674C92EF58222BF6100400BEF2499400674A92FF5822275820022AF83E58212
:203031009004FFF0EFA3F09004FFE0FEA3E0FF9004FDE0F540A3E0F541784EE4F2784E794D
:203051004DC3E3F5F0E295F0506A784EE27B0025E0FAEB33FBEA2EF582EB3FF583E0F582A3
:20307100C007C006C003C002122FF3AD82D002D003D006D007EDC454F0FD0ABA00010BEACC
:203091002EF582EB3FF583E0F582C007C006C005122FF3AC82D005D006D007EC2DFC784E70
:2030B100E22540F582E43541F583ECF0784EE22401F2808922AF829005017462F07E00C3DB
:2030D100EE9F5033EE24D7FCE43404FD7B0090074E7401F07405A3F0E4A3F090075104F0AD
:2030F100E4A3F08C828D838BF0C007C006126F08D006D0070E80C822AF83E582900502F054
:20311100EFA3F0758210122BEAAC8253040F0CECC40354F8FF900502E0FDA3E0FE8D028E3E
:20313100037C008A828B838CF0C007C006C00512753CAB82D005D006D0078F027C00EA2A84
:20315100F542EC33F5438B448C45C3E5449542E54564808543F063F08095F050268F8212B6
:2031710030C6C042C043C044C045742BC0E0747CC0E07480C0E012083FE58124F9F5817510
:20319100820122C007C006C005C002C004744FC0E0747CC0E07480C0E012083FE58124FB3C
:2031B100F581D005D006D0079004FD74D7F07404A3F0784DEFF28D828E8312302D75820102
:2031D10022758210122BEAAC82AD8353040F0CECC40354F8FF7E00C3EE9F505EEE24D7F566
:2031F10082E43404F583E024F0401DC007C006745BC0E0747CC0E07480C0E012083F158148
:2032110015811581D006D007EE24D7F582E43404F583E0FD7C00C007C006C005C004745D90
:20323100C0E0747CC0E07480C0E012083FE58124FBF581D006D0070E809D7460C0E0747C29
:14325100C0E07480C0E012083F158115811581229004D7226B
:207BB400627C801A000000697C8039000000767C8040000000807C8019000000867C8014BE
:207BD4000000008E7C8000000000927C80010000009A7C8000000000A47C8000000000AD95
:207BF4007C8000000000B67C8000000000C37C8064000000CE7C8000000000D77C80000003
:207C14000000E27C8000000000E97C8083000000F47C80000000004552524F52202D204BD8
:207C34006579206C656E6774683A25752C2052657175697265642025750A006B6579206CB6
:207C5400656E2025640A0030002578000A00464F524D41540053455249414C5F535045459E
:207C740044004149525F5350454544004E45544944005458504F57455200454343004D41FA
:207C9400564C494E4B004F5050524553454E44004D494E5F46524551004D41585F46524509
:207CB40051004E554D5F4348414E4E454C5300445554595F4359434C45004C42545F5253C9
:207CD4005349004D414E4348455354455200525453435453004D41585F57494E444F57000A
:117CF400454E4352595054494F4E5F4C4556454C009D
:060400000204A90227C856
:01040B0032BE
:0104130032B6
:01041B0032AE
:03042300023CE1B7
:03042B00025B93DE
:010433003296
:01043B00328E
:010443003286
:01044B00327E
:010453003276
:01045B00326E
:010463003266
:01046B00325E
:03047300025B0524
:01047B00324E
:010483003246
:01048B00323E
:010493003236
:01049B00322E
:0304A3000260BF35
:03052C000204A620
:0304A600023265BA
:20326500758433E5C4784FF2E5C37850F2122D7FE5827003122ED1758206122BEAAC8290CE
:203285000505ECF0758205122BEAAC82AD83AEF0FF900504EC4D4E4F24FFE433F075820E87
:2032A500122BEAAC82AD83AEF0FF900506EC4D4E4F24FFE433F01233401233E9121ECAE5BA
:2032C5008270157420C0E0747DC0E07480C0E0123306158115811581758210122BEAAC8220
:2032E5008C8212612EE5827015743AC0E0747DC0E07480C0E012330615811581158102505C
:203305000B907D5375F080127438E58124FCFFC007E58124FBF886820886830886F0120523
:20332500A11581907D5E75F080127438D2AFD2AC9003E8125B8843EF1080FE53D9BFAEB2C9
:203345004306808EB275B64075A90075FF807E5E7F011EBEFF011FEE4F70F775EF0675D434
:20336500CF75D5FF75D62875A41075A70F75A41075A70075E101AEE24306418EE2AEA643AC
:2033850006FD8EA675A70FAEA54306F58EA575A6FDAEB14306C08EB1AEA14306C08EA17547
:2033A500A70275A14075F80075A200AEF84306018EF8D2A375A700C289125C3C758201127F
:2033C5002BEAAC828C82123EC375B800D2AFC2B7C2B6D2EF75BCF975BA0075BB1B75D10733
:2033E50075E34022121F0BE5827015745FC0E0747DC0E07480C0E012330615811581158141
:20340500784FE2B44302801C784FE2B447028044784FE2B48602806C784FE2B49103023407
:20342500B70234E69005077490F074D1A3F074CFA3F07419A3F090050B7470F0745EA3F07D
:2034450074EAA3F07419A3F0900513740AF07818F202351E9005077480F074A1A3F07403CA
:20346500A3F0741CA3F090050B74C0F074E3A3F07412A3F0741CA3F0900513740AF0781801
:20348500F202351E900507E4F074A1A3F074BCA3F07433A3F090050B7480F07425A3F074A7
:2034A500DBA3F07433A3F0900513740AF07818F2806790050774C0F074CAA3F07489A3F0BF
:2034C5007436A3F090050BE4F07428A3F023A3F07437A3F09005137414F078187432F2804B
:2034E50038900507E4F0A3F0A3F0A3F090050BF0A3F0A3F0A3F0900513F0784FE2FE7F005F
:20350500C006C0077477C0E0747DC0E07480C0E0123306E58124FBF58175820A122BEAAC4F
:2035250082AD83AEF0FFEC4D4E4F601175820A122BEAAC82AD83AEF0FF7818ECF275820860
:20354500122BEAAC82AD83AEF0FFEC4D4E4F6039758208122BEAAC82AD83AEF0FF900763BA
:20356500ECF0EDA3F0EEA3F0EFA3F09003E8E4F5F01270D8AC82AD83AEF0FF900507ECF0D6
:20358500EDA3F0EEA3F0EFA3F0758209122BEAAC82AD83AEF0FFEC4D4E4F60397582091200
:2035A5002BEAAC82AD83AEF0FF900763ECF0EDA3F0EEA3F0EFA3F09003E8E4F5F01270D8FF
:2035C500AC82AD83AEF0FF90050BECF0EDA3F0EEA3F0EFA3F0758204122BEAAC82AD83AEBE
:2035E500F0FFEC4D4E4F6012758204122BEAAC82AD83AEF0FF900513ECF0900513E0FF7EE9
:20360500007D007C007845E4F208F208F208F278497414F208E4F208F208F28F828E838D6F
:20362500F0EC122F9AAC827818E2FB7D007E007F0078457401F208E4F208F208F27849748E
:2036450032F208E4F208F208F28B828D838EF0EFC004122F9AAB82AD83AEF0FFD0047818E8
:20366500EBF2784FE2B44302801E784FE2B44703023730784FE2B486030237D5784FE2B4C7
:20368500910302387A02391C900507E0FBA3E0FDA3E0FEA3E0FF78457480F2087423F20850
:2036A50074ADF2087418F27849E4F208740BF208746BF208741BF28B828D838EF0EFC004AC
:2036C500122F9AAB82AD83AEF0FF900507EBF0EDA3F0EEA3F0EFA3F090050BE0FBA3E0FD1B
:2036E500A3E0FEA3E0FF78457480F2087423F20874ADF2087418F27849E4F208740BF208D5
:20370500746BF208741BF28B828D838EF0EF122F9AAB82AD83AEF0FFD00490050BEBF0EDAF
:20372500A3F0EEA3F0EFA3F002393F900507E0FBA3E0FDA3E0FEA3E0FF78457480F208745B
:2037450074F20874D2F208741AF278497480F20874CEF2087434F208741DF28B828D838E7B
:20376500F0EFC004122F9AAB82AD83AEF0FF900507EBF0EDA3F0EEA3F0EFA3F090050BE052
:20378500FBA3E0FDA3E0FEA3E0FF78457480F2087474F20874D2F208741AF278497480F2B2
:2037A5000874CEF2087434F208741DF28B828D838EF0EF122F9AAB82AD83AEF0FFD00490D8
:2037C500050BEBF0EDA3F0EEA3F0EFA3F002393F900507E0FBA3E0FDA3E0FEA3E0FF784545
:2037E5007440F20874B6F208749AF2087432F278497440F2087410F20874FDF2087434F260
:203805008B828D838EF0EFC004122F9AAB82AD83AEF0FF900507EBF0EDA3F0EEA3F0EFA376
:20382500F090050BE0FBA3E0FDA3E0FEA3E0FF78457440F20874B6F208749AF2087432F266
:2038450078497440F2087410F20874FDF2087434F28B828D838EF0EF122F9AAB82AD83AE01
:20386500F0FFD00490050BEBF0EDA3F0EEA3F0EFA3F002393F900507E0FBA3E0FDA3E0FE90
:20388500A3E0FF7845E4F20874A1F20874BCF2087433F2784974C0F20874F7F20874BAF2C0
:2038A500087437F28B828D838EF0EFC004122F9AAB82AD83AEF0FF900507EBF0EDA3F0EE56
:2038C500A3F0EFA3F090050BE0FBA3E0FDA3E0FEA3E0FF7845E4F20874A1F20874BCF208FC
:2038E5007433F2784974C0F20874F7F20874BAF2087437F28B828D838EF0EF122F9AAB827F
:20390500AD83AEF0FFD00490050BEBF0EDA3F0EEA3F0EFA3F08023784FE2FE7F00C004C0B6
:2039250006C0077477C0E0747DC0E07480C0E0123306E58124FBF581D00490050BE0FBA3CD
:20394500E0FDA3E0FEA3E0FF900507E0F546A3E0F547A3E0F548A3E0F549EBB54625EDB5DE
:203965004721EEB5481DEFB5491990050B74402546F074423547A3F0740F3548A3F0E435AC
:2039850049A3F075820BC004122BEAAB827889EBF27F007E007D007845E4F208F208F20845
:2039A500F278497464F208E4F208F208F28B828F838EF0ED122F9AAB827889EBF27841EB9F
:2039C500F208E4F208F208F275820B122A7275820C122BEAAB82D0047891EBF2EB60377F5C
:2039E500007E007D0078457419F208E4F208F208F2784974DCF208E4F208F208F28B828F48
:203A0500838EF0EDC004122F9AAB82AD83AEF0FFD0047891EBF2C00478917941E2F309E417
:203A2500F309F309F375820CC004122A72D004900507E0F546A3E0F547A3E0F548A3E0F59F
:203A45004990073E74E8F07403A3F0E4A3F0A3F08546828547838548F0E549126DB9AA82F8
:203A6500AC83AEF0FF7841EAF208ECF208EEF208EFF2758208C004122A7290050BE0F54AF9
:203A8500A3E0F54BA3E0F54CA3E0F54D90073E74E8F07403A3F0E4A3F0A3F0854A82854B7F
:203AA50083854CF0E54D126DB9AA82AB83AEF0FF7841EAF208EBF208EEF208EFF275820911
:203AC500122A7278187941E2F309E4F309F309F375820A122A72D004E54AC39546FCE54BC0
:203AE5009547FDE54C9548FEE54D9549FF7818E2FA7B0074022AFAE43BFB90073EEAF0EB98
:203B0500A3F0EB3395E0A3F0A3F08C828D838EF0EF126DB9AC82AD83AEF0FF90050FECF016
:203B2500EDA3F0EEA3F0EFA3F0EFC313FFEE13FEED13FDEC139005072546F0ED3547A3F04B
:203B4500EE3548A3F0EF3549A3F0758203122BEAAC82C004126D63D0047818C3E2F5F0740B
:203B65000595F0D0044003023BF9C004C004126CEBAE82AF83900757EEF0EFA3F0900271C5
:203B8500126FC7AE82AF83D0048E4AEFF54B3395E0F54CF54D90050FE0FAA3E0FCA3E0FEF2
:203BA500A3E0FF900702EAF0ECA3F0EEA3F0EFA3F0854A82854B83854CF0E54DC0041269B3
:203BC5005885824A85834B85F04CF54DD004900507E0FAA3E0FBA3E0FEA3E0FF900507E595
:203BE5004A2AF0E54B3BA3F0E54C3EA3F0E54D3FA3F0D004900507E0FBA3E0FDA3E0FEA369
:203C0500E08B828D838EF0C004121F45D00490050FE0FBA3E0FDA3E0FEA3E08B828D838E68
:203C2500F0C004121F85758203122BEAAB82AD83AEF0FF7818900702E2F0E4A3F0A3F0A352
:203C4500F08B828D838EF0EF126958121FD8758202122BEA121FFFE582D004703B758202DA
:203C6500C004122BEA121FFFE582D004702A758202C004122BEA121FFFE582D0047019C0B7
:203C850004748EC0E0747DC0E07480C0E0123306158115811581D004C004121C38AF8278A0
:203CA50041EFF208E4F208F208F2758202122A72758203122BEA122322D0048C821222DCFA
:1C3CC50012231CAF827841EFF208E4F208F208F2758204122A721219DD02576A81
:207D05005246442053694B20322E30206F6E205246443930305500322E30006661696C6533
:207D25006420746F20656E61626C65207265636569766572006661696C656420746F2069EA
:207D45006E697469616C69736520616573000A2A2A50414E49432A2A0000726164696F5F78
:207D6500696E697469616C697365206661696C65640062616420626F617264206672657131
:207D850075656E637920256400726164696F5F636F6E666967757265206661696C6564005C
:1205140078677490F2087401F2786974F4F2087401F2E7
:203CE100C022C0E0C0F0C082C083C007C006C005C004C003C002C001C000C0D075D000100B
:203D01009803023DFCAF99900345E06011900346E06003023DFC8F821212B3023DFC8F82D0
:203D2100C00712134FD007786BE22401FD08E23400FEBD0009BE04067D007E00800B786B76
:203D4100E22401FD08E23400FE786DE2B5050708E2B50602803A786BE2247FF58208E2345C
:203D610007F583EFF0786BE22401FE08E23400FFBE0009BF04067E007F00800B786BE224DE
:203D810001FE08E23400FF786BEEF208EFF2801B7857E2FE08E2FFBEFF05BFFF02800C0E0B
:203DA100BE00010F7857EEF208EFF2786B796DC3E3F5F0E295F009E3F5F008E295F0401B46
:203DC100786DE22400FE08E23404FF786BD3E29EF4B3FEB308E29FF4FF8015786D796BE38D
:203DE100F5F0C3E295F0FE09E3F5F008E295F0FFC3EE9411EF94005002D282109903023E0B
:203E010087786F7971E2F5F0E3B5F00B08E2F5F009E3B5F0028069900506E0602730831ED1
:203E2100900345E07018900514E0FFE070089005157401F08050EF14900514F080069005CB
:203E4100147408F07871E2247FF58208E2340BF583E0FF7871E22401FD08E23400FEBD00B6
:203E610009BE04067D007E00800B7871E22401FD08E23400FE7871EDF208EEF28F99800683
:203E81009005157401F0D0D0D000D001D002D003D004D005D006D007D083D082D0F0D0E0C1
:203EA100D02232786F7971E2F5F0E3B5F00A08E2F5F009E3B5F00122900515E060030243FE
:203EC1007C22AF82C2AC786BE4F208F2786DF208F2786FF208F27871F208F27873F208F2A1
:203EE1007875F208F290051504F0C28E740F5589FE4306208E898F821246EFD28E75981046
:203F0100C282D2AC22AF82C007124326AD82AE83D007C3ED9401EE94005004758200228F4F
:203F210082123F2975820122AF82A2AC9210C2AC786FE22401FD08E23400FEBD0009BE044C
:203F4100067D007E00800B786FE22401FD08E23400FE7871E2B5050708E2B506028047785B
:203F61006FE2247FF58208E2340BF583EFF0786FE22401FE08E23400FFBE0009BF04067E3E
:203F8100007F00800B786FE22401FE08E23400FF786FEEF208EFF2900515E06024C022125B
:203FA100437CD022801B7855E2FE08E2FFBEFF05BFFF02800C0EBE00010F7855EEF208EF90
:203FC100F2A21092AC2278737975E2F5F0E3B5F00C08E2F5F009E3B5F0030240C91260C305
:203FE100E58270030240C97875E2247FFE08E2340FFF8E828F83E070117F0110AF027F00FC
:204001007875E4F208F2EF1392AF7875E22401FE08E23400FFEE247FFEEF340FFF7875E201
:20402100247FF58208E2340FF583E09006E0F09006E17416F07405A3F09006E37477F074B5
:2040410000A3F07460A3F08E828F8312643DE582601574A5C0E0747DC0E07480C0E0123391
:204061000615811581158178777979E2F39005161241E77875E2247FF58208E2340FF5834E
:204081007877E0F27875E2247FF58208E2340FF583E4F07F0110AF027F007877E2FD7E00F0
:2040A1000DBD00010E7875E22DF208E23EF27875C3E294FC08E2940340067875E4F208F278
:2040C100EF1392AF7582012275820022AF83E582900536F0EFA3F01260C3E5827003024141
:2040E100D27873E22401FE08E23400FF74FCC39EFE74039FFF7878E2FC7D00C3EE9CEF9DD8
:2041010050067873E4F208F2C005C004124813AE82AF83D004D005C3EE9CEF9D501B78557B
:20412100E2FE08E2FFBEFF04BFFF01220EBE00010F7855EEF208EFF2227873E2247FF58298
:2041410008E2340FF5837878E2F07873E22401FE08E23400FFEE247FFEEF340FFF8E4E8FBF
:204161004F755000900536E0FAA3E0FF90074EEAF0EFA3F0E4A3F0900751ECF0EDA3F08582
:204181004E82854F838550F0126F087F0110AF027F007878E2FD7E000DBD00010E7873E2F6
:2041A1002DF208E23EF27873C3E294FC08E29403400B7873E22404F208E234FCF2EF139252
:2041C100AF7873E2247FF58208E2340FF583E4F022900536E0FEA3E0FF78787979E2F38E3D
:2041E100828F830241E7AF83E582900538F0EFA3F07879E2700122124326AE82AF837879F4
:20420100E2FC7D00C3EE9CEF9D501F7879EEF27855E2FE08E2FFBEFF05BFFF02800C0EBEB9
:2042210000010F7855EEF208EFF27879E2FF786FD3E29400F4B3FDB308E29404F4FE8F0378
:204241007C00C3ED9BEE9C5008786FE2FEC3E49EFF786FE2247FFD08E2340BFE7C00900508
:2042610038E0FAA3E0FB90074EEAF0EBA3F0E4A3F0900751EFF0E4A3F08D828E838CF0C05F
:2042810007C003C002126F08D002D003D007900538EF2AF0E43BA3F07879E2C39FF27E015E
:2042A10010AF027E007D00786FE22FF208E23DF2786FC308E2940440067870E224FCF2EE02
:2042C1001392AF7879E26044900538E0FEA3E0FF90074EEEF0EFA3F0E4A3F07879E2FE7FD9
:2042E10000900751EEF0EFA3F0900B7F75F000C007C006126F08D006D0077D0110AF027D77
:2043010000786FEEF208EFF2ED1392AF7F0110AF027F00900515E06007C00712437CD0078B
:20432100EF1392AF22A2ACE433FFC2AC786F7971C3E3F5F0E295F009E3F5F008E295F04002
:204341001B7871E22400FD08E23404FE786FD3E29DF4B3FDB308E29EF4FE80157871796FC5
:20436100E3F5F0C3E295F0FD09E3F5F008E295F0FEEF24FF92AC8D828E8322900506E060A2
:204381000A308307900345E0700122900515E4F0D29922A2ACE433FFC2AC786B796DE2F590
:2043A100F0E3B5F00B08E2F5F009E3B5F002803A786DE2247FF58208E23407F583E0FE7889
:2043C1006DE22401FC08E23400FDBC0009BD04067C007D00800B786DE22401FC08E234003B
:2043E100FD786DECF208EDF280027E00786B796DC3E3F5F0E295F009E3F5F008E295F040DA
:204401001B786DE22400FC08E23404FD786BD3E29CF4B3FCB308E29DF4FD8015786D796B1A
:20442100E3F5F0C3E295F0FC09E3F5F008E295F0FDC374229CE49D5002C282EF24FF92ACF4
:204441008E8222A2ACE433FFC2AC786DE2247FF58208E23407F583E0FEEF24FF92AC8E829B
:2044610022AF83E58290053AF0EFA3F0A2ACE433FFC2AC90053AE0FDA3E0FE786DE22DFD4F
:2044810008E23EFE530603ED247FF582EE3407F583E0FEEF24FF92AC8E8222AF83E5829068
:2044A100053CF0EFA3F0124613AE82AF83787AE2FC7D00C3EE9CEF9D5004758200228C0359
:2044C1008D02786DD3E29400F4B3FCB308E29404F4FDC3EC9BED9A5010786DD3E29400F402
:2044E100B3FBB308E29404F4FA90053CE0FCA3E0FD8C518D52755300786DE2247FFE08E2E7
:204501003407FF90074EEEF0EFA3F0E4A3F0900751EBF0EAA3F08551828552838553F0C02A
:2045210005C004C003C002126F08D002D003D004D0058B06787AE2C39EF290053CEB2CF0C5
:20454100EA3DA3F07F0110AF027F00786DE22BF208E23AF2786DC308E294044006786EE2AE
:2045610024FCF2EF1392AF787AE2604890053CE0FEA3E0FF7D0090074E747FF07407A3F0E5
:20458100E4A3F0787AE2FB7C00900751EBF0ECA3F08E828F838DF0C004C003126F08D00394
:2045A100D0047F0110AF027F00786DEBF208ECF2EF1392AF7F0110AF027F00786B796DC32F
:2045C100E3F5F0E295F009E3F5F008E295F0401B786DE22400FD08E23404FE786BD3E29DD3
:2045E100F4B3FDB308E29EF4FE8015786D796BE3F5F0C3E295F0FD09E3F5F008E295F0FE5E
:20460100C374229DE49E5002C282EF1392AF75820122A2ACE433FFC2AC786B796DC3E3F5F8
:20462100F0E295F009E3F5F008E295F04017786B796DE3F5F0C3E295F0FD09E3F5F008E218
:2046410095F0FE8019786DD3E29400F4B3FBB308E29404F4FC786BE22BFD08E23CFEEF2424
:20466100FF92AC8D828E8322124613AE82AF83E4C39EFE74049FC423CEC423541F6ECE54F4
:204681001FCE6ECEFF900757EEF0EFA3F0900064126FC7AE82E583A2E7CE33CE33CE540121
:2046A1008E8222AE82AF83BE0A11BF000E75820DC007C006123F29D006D0078E82123F297D
:2046C10090000022AF827E00BE0900501DEE75F003A424C8F582747D35F0F583E493FDEFF6
:2046E100B50504758201220E80DE75820022AF827E00BE0900501BEE75F003A424C8F5821E
:20470100747D35F0F583E493FDEFB5050280030E80E090053EEEF0BE090690053E7406F03F
:2047210090053EE075F003A424C8FD747D35F0FE8D828E83A3E493F58D74F4558EFC8D82AA
:204741008E83A3A3E4934CF58E900757EFF0E4A3F090007D126FC7AF83021195787379756F
:20476100C3E3F5F0E295F009E3F5F008E295F0401B7875E224FCFE08E23403FF7873D3E2FE
:204781009EF4B3FEB308E29FF4FF801578757973E3F5F0C3E295F0FE09E3F5F008E295F008
:2047A100FF7867C3E2F5F0EE95F008E2F5F0EF95F05004758201227582002278737975C3B7
:2047C100E3F5F0E295F009E3F5F008E295F0401B7875E224FCFE08E23403FF7873D3E29EC3
:2047E100F4B3FEB308E29FF4FF801578757973E3F5F0C3E295F0FE09E3F5F008E295F0FF47
:204801007869C3E29E08E29F5004758201227582002278737975C3E3F5F0E295F009E3F5B7
:20482100F008E295F0401B7875E224FCFE08E23403FF7873D3E29EF4B3FEB308E29FF4FF9E
:1C484100801578757973E3F5F0C3E295F0FE09E3F5F008E295F0FF8E828F83227A
:207DA5006572726F72207768696C6520747279696E6720746F20646563727970742064619B
:1E7DC500746100012C02029602042C0009960013600126B001392B08739608FFF30871
:207F330000000000000000000000000000000000000000000000000000000000000000002E
:207F530000000000000000000000000000000000000000000000000000000000000000000E
:207F73000000000000000000000000000000000000000000000000000000000000000000EE
:207F93000000000000000000000000000000000000000000000000000000000000000000CE
:0605260090063E740AF08D
:20485D007861E2FE08E2FF7864E2FD7C007860E2FB8B548C557863E2FB8B568C57785FE2B8
:20487D00FB7A00C006C007C005C004C054C055C056C057C003C00274E3C0E0747DC0E074B9
:20489D0080C0E012083FE58124F3F581788EE2FE7F00C007C0061226CEAC82AD83D006D093
:2048BD0007785DE2F55608E2F557785BE2F55408E2F5557859E2F55808E2F5597857E2F58C
:2048DD005A08E2F55B7855E2F55C08E2F55D7851E2F55E08E2F55F7853E2FA08E2FBC0065D
:2048FD00C007C004C005C056C057C054C055C058C059C05AC05BC05CC05DC05EC05FC00257
:20491D00C003740FC0E0747EC0E07480C0E012083FE58124EBF5817861E4F208F2229006C9
:20493D003CE030E00302485D22AF827E007885900757E2F008E2A3F08F828E83126FC7AE61
:20495D0082AF837883E22EFE08E23F8E82F58322AF82787BE2F560787CE2FC08E2FD789985
:20497D00E230E6467401B560107881E2FA08E2FB787CEAF208EBF280467402B560028005FB
:20499D007403B5600F787B7403F2787C7401F208E4F2802B787BE4F27898E2FA08E2541F0D
:2049BD00FB787CEAF208EBF28015787B7402F27898E2FA08E2541FFB787CEAF208EBF278C9
:2049DD007BE2B40203EF60047B0080027B01EB24FF920A787BE26002C20B7815E220E101B9
:2049FD0022787C79E2D3E29CF4B3F3B308E29DF409F3787BE2B5606EC0077883E2FA08E234
:204A1D00FB9007747402F0E4A3F08A828B83C003C002127328AE82AF83D002D00378E2C326
:204A3D00E2F5F0EE95F008E2F5F0EF648063F08095F0D0074030E49AFAE49BFB900774746D
:204A5D0002F0E4A3F08A828B83C007127328AB82AE83D00778E2C3E29B08E264808EF063C4
:204A7D00F08095F0504B7E00787BE2FA7B00AC607D00C007C006C002C003C004C005744EDB
:204A9D00C0E0747EC0E07480C0E012083FE58124F7F58178E2E2C0E008E2C0E07461C0E008
:204ABD00747EC0E07480C0E012083FE58124FBF58122AE82AF837887C3E29E08E29F5008B8
:204ADD007887E4F208F2800A7887E2C39EF208E29FF2787CC3E2F5F0EE95F008E2F5F0EF02
:204AFD0095F05003024D38787BE2FC7D000CBC00010D90075F7404F0E4A3F08C828D83C063
:204B1D0007C006127070AC82D006D007787BECF2787CD3E29EF4B3FEB308E29FF4FF787BFF
:204B3D00E26006787BE2B40210787EE2FC08E2FD787CECF208EDF2800E7881E2FC08E2FDB5
:204B5D00787CECF208EDF2787BE26006787BE2B40125C007C006121A81121ECAD006D007B4
:204B7D007818C3E2F5F0740195F0500B7892E4F208F27896F208F2787BE26003024D2BC063
:204B9D0006C0077889E2FC7D00788EE2F5618D62ECC39561FEED9562FFBE640ABF0007D05A
:204BBD0007D006024D2BD007D006C006C007C007C006C005C004788AE2C0E008E2C0E0081B
:204BDD00E2C0E008E2C0E090333375F073743F126C4885826385836485F065F566E58124D0
:204BFD00FCF581D004D005D006D007788FE2F58208E2F583C005C0041273F0AA82AB83AE08
:204C1D00F0FFD004D005C007C006C005C004C002C003C006C00790000075F0A07440126CF0
:204C3D004885826785836885F069F56AE58124FCF581D004D005D006D0077881797EE3C50A
:204C5D00F0E225F0FE09E3C5F008E235F0FFEE2EFEEF33FF8E828F83C005C0041273F0AA9E
:204C7D0082AB83AEF0FFC002C003C006C0078567828568838569F0E56A127554AA82AB8378
:204C9D00AEF0FFE58124FCF581C002C003C006C0078563828564838565F0E5661272CFAA54
:204CBD0082AB83AEF0FFE58124FCF581D004D005788AEAF208EBF208EEF208EFF2788FE466
:204CDD00F208F2ECC39561FCED9562FD8C828D831273E3AC82AD83AEF0FFC006C004C00579
:204CFD00C006C007788AE2F58208E2F58308E2F5F008E2126F97E58124FCF581D006AF8279
:204D1D0090063BEFB40100E433F0D007D006C20AC20B7887E4F208F2024AEF787CE2C39E73
:204D3D00F208E29FF222787BE2FE7F0074022EFEE43FFF90075F7404F0E4A3F08E828F83BA
:204D5D00127070AE82787BEEF22212231CE58224EB4005788EE4F2221226CEE5828583F0B0
:204D7D00249CFEE5F034FFFFC3E49E74808FF063F08095F0400F788EE2600A788EE2FD7843
:204D9D008E14F2804CC3740A9E74808FF063F08095F0500C788EE2FD788E740A2DF2803157
:204DBD00C374059E74808FF063F08095F0500C788EE2FD788E74052DF28016C3E49E748083
:204DDD008FF063F08095F05008788EE2FF788E04F27889E2FE7F00788EE2FC7D00EEC39C96
:204DFD00FEEF9DFFC3EE9414EF6480948050097889E2FF788E24ECF222300D0990063EE46A
:204E1D00F0C20D800790063EE02401F090063EE0FFBF02005004D2B78006A20C92B7B20CDA
:204E3D00EF24D74003024ECC90063E7405F0125C58E58230E058787CE2FE08E2FF7881C3C1
:204E5D00E29E08E29F50177883D3E29EF4B3FCB308E29FF4FD787CECF208EDF28008787C72
:204E7D007401F208E4F27815E230E122787CE2C0E008E2C0E0C006C007746DC0E0747EC06E
:204E9D00E07480C0E012083FE58124F9F5817815E230E1157487C0E0747EC0E07480C0E0D9
:204EBD0012083F158115811581758200121AE490063EE0603D121C2CAF827E00785FE29010
:204EDD000757F0E4A3F0900003C007C006126FC7AC82AD83D006D007EC2FFCED3EC313CC99
:204EFD0013CCC313CC13CCFD785FECF27861E4F208F290063EE024FA501790074BE4F0905B
:204F1D00074C7404F0E4A3F090006375F060126EE0781590063CE2F0D20E90063FE024013F
:204F3D00F0E0FFBF0408124D6790063FE4F0229002FF75F00012753CE5828583F02401FEEE
:204F5D00E435F0FF90074E74FFF07402A3F0E4A3F0900751EEF0EFA3F090009C75F0601219
:204F7D006F0890063D7401F022AF82BF02004017EF24BA401290053FE0FEBE520A9005403A
:204F9D00E0FEBE540280047582012290074E743FF07405A3F0E4A3F0900751EFF0E4A3F01B
:204FBD009002FF75F000C007126F08D007EF24FFF582E43402F583E4F09002FF7441F0781A
:204FDD0014EFF29003467401F09000EC74FCF090053F1205691213E4120596E582FF600ACB
:204FFD007812EFF290053F12126175820022125BFE78E5E582F208E583F278E579E7E2F3A2
:20501D0008E209F378FF762A78FFB62A0280157496C0E0747EC0E07480C0E01233061581D7
:20503D00158115817813E2B44102801574A3C0E0747EC0E07480C0E01233061581158115C5
:20505D00811213E490063CE0600812493B90063CE4F09002ECE06014900505E0600E900306
:20507D0045E070089002ECE4F0120985121A71121FD8125BFEAA82AB83782C743FF2087454
:20509D0005F29000E475F060C003C002121B1DE582D002D0037003025294C002C003D20D29
:2050BD00758201C003C002121AE4D002D003C002121C2CAB82D0027A00785FE2900757F075
:2050DD00E4A3F0900007C003C002126FC7AC82AD83D002D003EC2BFCED3AC423CCC42354AD
:2050FD001F6CCC541FCC6CCC785FECF27861E2FC08E2FD0CBC00010D7861ECF208EDF27886
:20511D0087E4F208F278E4E2B40200D003D002500302502578E4E27D0024FCFCED34FFFDC4
:20513D00EC243FFCED3405FD90074EECF0EDA3F0E4A3F09007517404F0E4A3F090009875C8
:20515D00F060C003C002126F08D002D00378E4E214141414F27898E2FC08E2541F4C704167
:20517D0078E4E2603C78E4E2B4042090074E743FF07405A3F0E4A3F078E4900751E2F0E41D
:20519D00A3F090006375F060126F087861E2FC08E2FD1CBCFF011D7861ECF208EDF202509B
:2051BD00257898E2FC08E2541FFD4C700302502578E4E2F582C003C00212496DD002D00388
:2051DD0078E5EAF208EBF27899E2C4035401FDBD010C78E4E2F582124F86E582703F78E4B0
:2051FD00E270030250257899E230E5030250257899E2235401FD9002F9743FF07405A3F0A2
:20521D009002FBEDF078E4E2F5821211CEE5826003025025900345E06003025025750C3FCE
:20523D00750D0578E4E2F582120859AC82AD83789AE2FA08E2FBECB50217EDB50313D2B677
:20525D0078E47978E2F390053F1240CDC2B6025025785DE2FC08E2FDBCFF06BDFF030250C1
:20527D0025785DE2FC08E2FD0CBC00010D785DECF208EDF2025025125BFEAC82AD8378E545
:20529D00D3E29CF4B3FAB308E29DF4FB8A828B83C005C004C003C002124ACFD002D003D00E
:2052BD0004D00578E5ECF208EDF278E7D3E29CF4B3FEB308E29DF4FFC3E49E74809F501A12
:2052DD00C005C004C003C002124E16D002D003D004D00578E7ECF208EDF27891E2607AC036
:2052FD0003C002121C32AF82D002D0037891C3E2F5F0EF95F0500B7892E22AF208E23BF215
:20531D0080367892E4F208F27896E2F5F008E245F07025126CEBAE82AF837894900767E2A0
:20533D00F008E2A3F08E828F83127144E5828583F07896F208E5F0F278947996E3C5F0E237
:20535D0025F0FE09E3C5F008E235F0FF7892C3E29E08E29F5003025025787BE26011200A5E
:20537D0003025025787BE2B402028003025025300B030250257887E2F5F008E245F0600312
:20539D00025025200D07121C0EE5827007121BEFE58260117883E2FE08E2FF7887EEF2088C
:2053BD00EFF2025025121C32AF827E007860E2900757F0E4A3F0900003C007C006126FC7F2
:2053DD00AC82AD83D006D007EC2FFCED3EC313CC13CCC313CC13CCFD7860ECF290063BE0FD
:2053FD006003025025787C7983C3E3F5F0E295F009E3F5F008E295F05003025025787C795D
:20541D0083E3F5F0C3E295F0FE09E3F5F008E295F0FF78859006FBE2F008E2A3F08E828F41
:20543D00831268CBAE82AF83BE14005003025025EE24FBFFC0071260C3E582D007600EBF16
:20545D00100050030250258F06EE24F0FF7880C3E29F50047880E2FF90063DE0605A900059
:20547D009C75F060C00712753CAD82AE83D0078F037C00C3EB9DEC9E403E90009C75F0609B
:20549D00C00712753CAD8278E4EDF290074E749CF0E4A3F07460A3F0900751EDF0E4A3F0FC
:2054BD0090053F75F000126F08D0077899E24420F290063DE4F080529002F4743FF07405D2
:2054DD00A3F08F82C007120CD3AE82D00778E4EEF2EE6013C007121180AE82D0077899EE3F
:2054FD0013E292E5F280067899E254DFF2750C3F750D0578E4E2F582C007120859AD82AE80
:20551D0083D007789AEDF208EEF278E47980C3E2F5F0E395F05019C00774B9C0E0747EC045
:20553D00E07480C0E0123306158115811581D007787BE2B40203148001E4789913E292E671
:20555D00F2C007121179AE82D0077899EE13E292E7F2787BE2704478E4E2703F300E3CBFC4
:20557D0004004037C20E90074E745FF0E4A3F07460A3F09007517404F0E4A3F090053F752D
:20559D00F000126F0878E47404F27898E4F208E254E0F27899E2547FF280761260C3E5826F
:2055BD00604778E4E2FE7F0074042EFEE43FC4CEC4540F6ECE540FCE6ECE30E30244F00EEC
:2055DD00EEC454F0F582124946AE82AF83787CE2C39EFE08E29FFF7898EEF208EF541FF532
:2055FD00F0E254E045F0F2802878E4E22404F582124946AE82AF83787CE2C39EFE08E29F1B
:20561D00FF7898EEF208EF541FF5F0E254E045F0F2121A61121FD878E4E2243FFEE43405A0
:20563D00FF7D0090074E7498F0E4A3F07460A3F09007517404F0E4A3F08E828F838DF0129A
:20565D006F0878E4E2600E7898E2FE08E2541FFF4E6002D2B678E4E27002D20B7883E2FE1E
:20567D0008E2FF7887EEF208EFF27889E2FE7F00788EE2FC7D00EEC39CFEEF9DFFBE64059E
:20569D00BF0002801778E4E22404F582124946AE82AF83788FE22EF208E23FF278E4E2242F
:2056BD0004FF7881E2FD08E2C313CD13CDFE787CE22DFD08E23EFE7834743FF2087405F29D
:2056DD007836EDF208EEF28F82121E91E582701A78E4E260157898E2FE08E2541FFF4E60C8
:2056FD00097899E220E5031211877891E2600B7892E4F208F27896F208F278E4E2600E7891
:20571D0098E2FE08E2541FFF4E6002C2B6787EE2FE08E2C313CE13CEFF787CC3E2F5F0EEC0
:20573D0095F008E2F5F0EF95F0501612475DE582600C1247BCE5827008123FC780F4123FC4
:20575D00C7121A71121FD8121ECA025025121C38AF82900763EFF0E4A3F0A3F0A3F09003AE
:20577D00E8E4F5F01270D8AC82AD83AEF0FF90073EECF0EDA3F0EEA3F0EFA3F090120075BB
:20579D00F07AE4126DB9AC82AD83AEF0FF74082CFCE43DFDE43EFEE43FFFEDC4CCC4540FC3
:2057BD006CCC540FCC6CCCFDEEC454F04DFDEFC4CEC4540F6ECE540FCE6ECE74012CFEE41C
:2057DD003DFF7885EEF208EFF2900757EEF0EFA3F090000DC007C006126FC7E5828583F08B
:2057FD00D006D007240DFCE435F0FD7883ECF208EDF2900504E0602D78807474F2EE2EFEFA
:20581D00EF33FF7885EEF208EFF2EE2EFEEF33FFEE2EFEEF33FFEE2CFCEF3DFD7883ECF2F6
:20583D0008EDF28005788074F8F278837981E225E0F308E23309F37885900763E2F008E2EE
:20585D00A3F0E4A3F0A3F07880E2FC7D007E007F008C828D838EF0EF1270D885826B8583DF
:20587D006C85F06DF56E7883E2FA08E2FB7E007F00900763E56B2AF0E56C3BA3F0E56D3E8E
:20589D00A3F0E56E3FA3F0900003E4F5F01270D8AC82AD83AEF0FF900642ECF0EDA3F0EE60
:2058BD00A3F0EFA3F078947438F2087401F27891E2603A784574A8F2087403F208E4F208F6
:2058DD00F27849ECF208EDF208EEF208EFF28C828D838EF0EF122F9AAC82AD83AEF0FF9071
:2058FD000642ECF0EDA3F0EEA3F0EFA3F0900642E0FCA3E0FDA3E0FEA3E0FFC3EC94A8EDD5
:20591D009461EE9400EF9400401B7818C3E2F5F0740195F0500F90064274A8F07461A3F056
:20593D00E4A3F0A3F075820F122BEAAC82AD83AEF0FF900763ECF0EDA3F0EEA3F0EFA3F0BF
:20595D0090003EE4F5F01270D885826B85836C85F06DF56E900642E0FAA3E0FBA3E0FEA3BA
:20597D00E0FFC3E56B9AE56C9BE56D9EE56E9F503975820F122BEAAC82AD83AEF0FF900768
:20599D0063ECF0EDA3F0EEA3F0EFA3F090003EE4F5F01270D8AC82AD83AEF0FF900642EC78
:2059BD00F0EDA3F0EEA3F0EFA3F0900642E0FCA3E0FDA3E0FEA3E0FFC374FF9C741F9DE43A
:2059DD009EE49F500F90064274FFF0741FA3F0E4A3F0A3F0900642E0FCA3E0FDA3E0A3E085
:2059FD00787EECF208EDF2782BE27E0024F6FFEE34FFFE9007747402F0E4A3F08F828E838A
:205A1D00C005C004127328AE82AF837885900757E2F008E2A3F08E828F83126FC7AE82AF4E
:205A3D0083D004D0057883E22EF208E23FF27883D3E29CF4B3FCB308E29DF4FD7885900658
:205A5D00FBE2F008E2A3F08C828D831268CBAE82AF83900640EEF0EFA3F07880E2FC7D0091
:205A7D00C3EC9EED9F5008900640ECF0EDA3F0900640E0FEA3E08E8202118A7881E2C0E047
:205A9D0008E2C0E074CEC0E0747EC0E07480C0E012083FE58124FBF581900001125B887805
:205ABD007EE2C0E008E2C0E074E2C0E0747EC0E07480C0E012083FE58124FBF5819000013E
:205ADD00125B887880E2FE7F00C006C00774F7C0E0747EC0E07480C0E012083FE58124FBC1
:085AFD00F581900001025B88B5
:207DE3004C2F5220525353493A2025752F257520204C2F52206E6F6973653A2025752F2502
:207E03007520706B74733A2025752000207478653D2575207278653D2575207374783D2585
:207E230075207372783D2575206563633D25752F257520637263653D25752074656D703DE4
:207E430025642064636F3D25750A0054444D3A2025752F2575206C656E3D257520002064E3
:207E6300656C74613A2025640A0054444D3A206368616E67652074696D696E672025752F36
:207E830025750A0054444D3A207363616E6E696E670A00737461636B20626C6F776E0A003F
:207EA30070646174612063616E617279206368616E6765640A006F76657273697A65642028
:207EC30074646D207061636B65740073696C656E63655F706572696F643A2025750A00748B
:207EE300785F77696E646F775F77696474683A2025750A006D61785F646174615F706163C1
:107F03006B65745F6C656E6774683A2025750A004B
:205B0500C022C0E0C0F0C082C083C007C006C005C004C003C002C001C000C0D075D0007563
:205B2500910412139CE51D6002151DD0D0D000D001D002D003D004D005D006D007D083D015
:205B450082D0F0D0E0D02232AE82AF83C3EE94F6EF94094004751DFF2274092EFEE43FFF3F
:205B65009006FB740AF0E4A3F08E828F831268CBAE828E1D2285821D22E51DB40100E43332
:205B8500F58222125B4D125B7EE58260F922C022C0E0C0F0C082C083C007C006C005C00413
:205BA500C003C002C001C000C0D075D00075C8047401251EF51EE4351FF51F900506E060D2
:205BC50003123EA4D0D0D000D001D002D003D004D005D006D007D083D082D0F0D0E0D02286
:205BE50032AFCDAECCEFB5CDF88F05E4FFFCEE4207EC42058F828D8322AE1EAF1FC007C0CE
:205C050006125BE6AC82AD83D006D007EEB51EE9EFB51FE5EEC40354F8FF7E00EDC403CCCB
:205C2500C40354076CCC5407CC6CCCFDEC4206ED42078E828F83227592407593B0759104F2
:175C4500AEE64306808EE675CA0075CB0075C804D2AD2285CC822221
:205C5C00E58290064EF0E0FFBF03028005BF07004004758201228F0674035E2402C40354F6
:205C7C00F8FE90064CE0FCA3E0C454F0CCC4CC6CCC54F0CC6CFD90064FECF0EDA3F075A75F
:205C9C000275E90075EA0053D2A775D10375C90575D60190064AE0FCA3E0FD900651ECF086
:205CBC00EDA3F0900651E0F5CA900652E0F5CB75CF008ECEE4F5CCF5CDEF30E21290064644
:205CDC00E0FEA3E0FF900651EEF0EFA3F08010900648E0FEA3E0FF900651EEF0EFA3F07577
:205CFC00D10475C90675D600900651E0F5CA900652E0F5CB90064FE0F5CE900650E0F5CF04
:205D1C0075CC0075CD0090064EE030E212900648E0FEA3E0FF900651EEF0EFA3F080109057
:205D3C000646E0FEA3E0FF900651EEF0EFA3F075D10675C98875D600900651E0F5CA9006DB
:205D5C0052E0F5CB90064FE0F5CE900650E0F5CF75CD0075CC0053D3A743D25875EA009077
:205D7C00064EE0F5E9AEE94306088EE9AEE74306208EE7E5D330E6FB75E90075EA0053D278
:085D9C00A753D3A77582002272
:205DA400AF83E582900656F0EFA3F0900655E0FFBF03004004758201228F060E0EEEC40398
:205DC40054F8FE75A70275E90075EA0053D2A775D10375C90575D600900656E0FCA3E0FDAF
:205DE400900658ECF0EDA3F0900658E0F5CA900659E0F5CB75CF008ECE75CC0075CD0075A1
:205E0400D10475C90675D60075CA0075CB0075CF0075CE1075CC0075CD0075D10675C9886F
:205E240075D600900653E0FCA3E0FD900658ECF0EDA3F0900658E0F5CA900659E0F5CB75F3
:205E4400CF008ECE75CD00EF600575CC10800375CC0053D3A743D25875EA048FE9ADE9437A
:205E640005048DE9ADE94305088DE9ADE74305208DE7E5D330E6FBEF602053D2A775D10683
:205E840075CC0075CE1053D38743D240AEE77F004306208EE7E5D330E6FB75E90075EA00F0
:0A5EA40053D2A753D3A77582002242
:205EAE00E582900664F0E0FFBF03028005BF07004004758201228F0674035E2402C403548C
:205ECE00F8FE900662E0FCA3E0FD8C02C454F0CAC4CA6ACA54F0CA6AFB900665EAF0EBA372
:205EEE00F01CBCFF011D900662ECF0EDA3F075A70275E90075EA0053D28775D10375C90548
:205F0E0075D600900660E0FCA3E0FD900667ECF0EDA3F0900667E0F5CA900668E0F5CB75CE
:205F2E00CF008ECEE4F5CCF5CDEF30E21290065AE0FEA3E0FF900667EEF0EFA3F0801090E1
:205F4E00065CE0FEA3E0FF900667EEF0EFA3F075D10475C90675D600900667E0F5CA900609
:205F6E0068E0F5CB75CE1075CF0075CC0075CD0075D10575C90775D60090065EE0FEA3E0C1
:205F8E00FF900667EEF0EFA3F0900667E0F5CA900668E0F5CB75CE1075CF0075CC0075CD43
:205FAE0000900664E030E21290065CE0FEA3E0FF900667EEF0EFA3F0801090065AE0FEA325
:205FCE00E0FF900667EEF0EFA3F075D10675C98875D600900667E0F5CA900668E0F5CB756B
:205FEE00CE1075CF0075CD0075CC0053D38743D278900664E030E20575EA01800375EA027F
:20600E00900664E0F5E9AEE94306088EE9AEE74306208EE7E5D330E6FB900662E0F5F0A3BF
:20602E00E045F0607C53E9F753D28775D10375D60175CC0075CD0075D104900665E0F5CE82
:20604E00900666E0F5CF75D10590065CE0FEA3E0FF900667EEF0EFA3F0900667E0F5CA906C
:20606E000668E0F5CB900665E0F5CE900666E0F5CF75CC0075CD0075D106900665E0F5CE59
:20608E00900666E0F5CF53D38743D278AEE94306088EE9AEE77F004306208EE7E5D330E6F9
:1160AE00FB75E90075EA0053D28753D38775820022B7
:2060BF0053E7DF329006CBE0F58222E5829006CCF0E09006CBF022123261E5828583F090FC
:2060DF000669F0E5F0A3F022AF83E5829006CFF0EFA3F09006CDE0FEA3E0FF9006CFE0FC44
:2060FF00A3E0FD7B108E828F83E493FAA3AE82AF838C828D83EAF0A3AC82AD839006CFEC94
:20611F00F0EDA3F0DBDF9006CFECF0EDA3F022E5829006D1F07582001260CA9006D1E0FF1C
:20613F00740F5FFE7004758201221EC007C0061260D6D006900669E0FCA3E0FD9006537451
:20615F006BF07406A3F0900655EEF08C828D83125DA4E582D007600475820022EFC4540FED
:20617F00FF53070FBF00028005BF011480229006CD7423F0747FA3F090068B1260E7801062
:20619F009006CD7423F0747FA3F090068B1260E79006D1E0F5821260CA75820122AF83E5CB
:2061BF00829006D3F0EFA3F09006D3E0FEA3E0FF7D009006D2E0FCFA7B0090074EEEF0EFB2
:2061DF00A3F0EDA3F0900751EAF0EBA3F09006AB75F000C004126F08D0048C067F009007DE
:2061FF005F7410F0E4A3F08E828F83C004127070AE82D0049006D57410C39EF07F00900605
:20621F00D5E0FEC3EF9E5034EF2C24ABFDE43406FE7B0090074E74D5F07406A3F0E4A3F0B8
:20623F0090075104F0E4A3F08D828E838BF0C007C004126F08D004D0070F80C29006AB22DE
:20625F00AF83E5829006DCF0EFA3F09006D6E0FF7003F58222C0071260C3AE82D0078E04B6
:20627F0053040F7D00BC0105BD00028010BC0205BD00028010BC031DBD001A80109006DE42
:20629F007404F080169006DE7405F0800E9006DE7406F080069006DE7404F0EEC4540FFE23
:2062BF0053060F9006DCE0FCA3E0FD9006D2EFF08C828D83C007C0061261BCAC82AD83D03A
:2062DF0006D007EFC4540FFF0FBE00028008BE0102805E0263C69006DEE0F56F9006D7E087
:2062FF00FAA3E0FB900669E0F8A3E0F98F06C0077F0090065AECF0EDA3F090065CEAF0EBD6
:20631F00A3F090065E748BF07406A3F0900660E8F0E9A3F0900662EEF0EFA3F0856F82C003
:20633F0007125EAEE582D0079006DFF0D00702641E9006CD7413F0747FA3F090069BC007C3
:20635F00C005C0041260E7D004D005D0079006DEE0F56F9006D7E0FAA3E0FB900669E0F868
:20637F00A3E0F98F06C0077F009006EAECF0EDA3F09006ECEAF0EBA3F09006EE749BF074FA
:20639F0006A3F09006F0E8F0E9A3F09006F2EEF0EFA3F0856F82C007126628E582D00790D8
:2063BF0006DFF0D00780589006DEE0F56F9006D7E0FAA3E0FB900669E0F8A3E0F98F06C015
:2063DF00077F0090065AECF0EDA3F090065CEAF0EBA3F090065E748BF07406A3F09006609C
:2063FF00E8F0E9A3F0900662EEF0EFA3F0856F82C007125EAEE582D0079006DFF0D007906D
:20641F0006D9E0FCA3E0FDA3E0FEEFC454F08C828D838EF0126F7C9006DFE0F58222AF83F1
:20643F00E5829006E6F0EFA3F09006E0E0FF7003F58222C0071260C3AE82D0078E0453049B
:20645F000F7D00BC0105BD00028010BC0205BD0002800FBC031CBD0019800F9006E8E4F0DD
