:08050200C200C201C202C203E3
:20052F00AF829000E9E0700A8F05FE8D828E8302495B78067905C3E3F5F0E295F0501A7880
:20054F0006E2FE780604F29000EAE0FCA3E0FDEE2CF582E43DF583EFF022AF83E582900008
:20056F00EDF0EFA3F09000EDE0FEA3E0FF9000EAEEF0EFA3F07806E4F29000ECE07805F237
:20058F009000E97401F0229000E9E4F07806E2F58222AD82AE83AFF08D828E838FF01278DE
:2005AF00CEFC700122BC25028003020826C203C202C201C2000DBD00010E8D828E838FF0B3
:2005CF001278CEFBBB6802800CBB6C10D2000DBD000A0E8007D2020DBD00010E8D828E83C9
:2005EF008FF01278CEFBBB63028030BB64028018BB6F02802BBB7302800ABB7502800EBB85
:20060F0078238010D201801D75080A801875080AD2038011750810D203800A750800800536
:20062F00750808D203300171A8811818E624FDFBA8811818A6038B01870909870A09870B01
:20064F001919C005C006C007AA09AB0AAF0B8A828B838FF01278CED007D006D005700302FD
:20066F000837C005C006C007AA09AB0AAF0B8A828B838FF01278CEFA0509E4B50902050A0C
:20068F008A82C007C006C00512052FD005D006D007D007D006D00580A930036D300026A8DC
:2006AF00811818E624FCFBA8811818A6038B017801E7F209E708F209E708F209E708F219C2
:2006CF00191902078430021DA8811818E614F9A8811818A60187037801EBF208E4F208F2F9
:2006EF0008F2020784A8811818E624FEFBA8811818A6038B018702098703197801EAF208E8
:20070F00EBF208E4F208F2806C300025A8811818E624FCFBA8811818A6038B017801E7F29A
:20072F0009E708F209E708F209E708F2191919804430021CA8811818E614F9A8811818A644
:20074F000187037801EBF208E4F208F208F28025A8811818E624FEFBA8811818A6038B0148
:20076F008702098703197801EAF208EBF2EB3395E008F208F2E50870030208103003339004
:20078F00070A747CF0E4A3F07440A3F090070DE508F07801E2F58208E2F58308E2F5F0080F
:2007AF00E2C007C006C005126D4FD005D006D0078031900733747CF0E4A3F07440A3F090FD
:2007CF000736E508F07801E2F58208E2F58308E2F5F008E2C007C006C005126E62D005D02A
:2007EF0006D007797CE7FB603F8B82C007C006C005C00112052FD001D005D006D007098055
:20080F00E47801E2F582C007C006C00512052FD005D006D00780118C82C007C006C00512F6
:20082F00052FD005D006D0070DBD00010E0205A7E58124FCFFC007E58124FBF8868208860D
:0A084F00830886F01205A11581222E
:20085900AF827E007D00AB0CAC0D8F021FEA603E8B828C83E0FAA3AB82AC838D01E929F91D
:20087900ED30E716E904F577E9907A71936EFDE577907A7193F86AFE80D0E904F8E9907999
:1E08990071936EFDE890797193F96AFE80BC8D07E4FDFCEE4205EC42078D828F832222
:207971000000102120423063408450A560C670E781089129A14AB16BC18CD1ADE1CEF1EFF6
:20799100123102103273225252B5429472F762D693398318B37BA35AD3BDC39CF3FFE3DEB6
:2079B100246234430420140164E674C744A45485A56AB54B85289509E5EEF5CFC5ACD58D76
:2079D100365326721611063076D766F6569546B4B75BA77A97198738F7DFE7FED79DC7BC36
:2079F10048C458E5688678A70840186128023823C9CCD9EDE98EF9AF89489969A90AB92BF6
:207A11005AF54AD47AB76A961A710A503A332A12DBFDCBDCFBBFEB9E9B798B58BB3BAB1AB5
:207A31006CA67C874CE45CC52C223C030C601C41EDAEFD8FCDECDDCDAD2ABD0B8D689D4975
:207A51007E976EB65ED54EF43E132E321E510E70FF9FEFBEDFDDCFFCBF1BAF3A9F598F7835
:207A7100918881A9B1CAA1EBD10CC12DF14EE16F108000A130C220E35004402570466067F5
:207A910083B99398A3FBB3DAC33DD31CE37FF35E02B1129022F332D24235521462777256B5
:207AB100B5EAA5CB95A88589F56EE54FD52CC50D34E224C314A00481746664475424440575
:207AD100A7DBB7FA879997B8E75FF77EC71DD73C26D336F2069116B0665776764615563435
:207AF100D94CC96DF90EE92F99C889E9B98AA9AB584448657806682718C008E1388228A3F5
:207B1100CB7DDB5CEB3FFB1E8BF99BD8ABBBBB9A4A755A546A377A160AF11AD02AB33A92B4
:207B3100FD2EED0FDD6CCD4DBDAAAD8B9DE88DC97C266C075C644C453CA22C831CE00CC174
:207B5100EF1FFF3ECF5DDF7CAF9BBFBA8FD99FF86E177E364E555E742E933EB20ED11EF034
:2008B700AF8290053FE0FE9000EF74FFF0A3F08E058E047E0074062CFAE43EFBEA243EF528
:2008D70082EB3405F583EFF074072DFF7D01C3ED9F5066C007ED243EF582E43405F583E0D8
:2008F700FB9000EFE0F9A3E0FA8900E862038B00E8C454F06BF5778A78757900A8777B005F
:2009170088077A00E5786202E5796207EBC40354F8C8C403C868C854F8C868FBE86202EBFC
:200937006207E577C4540FF97B009000EFE96AF0EB6FA3F00DD007809574062CFDE43EFFD4
:20095700ED243EFDEF3405FF9000EFE0FAA3E0FB8A018D828F83E9F074072CFCE43EFEEC02
:20097700243EF582EE3405F5838B02EAF02290053E74FEF090053F7409F07807E2FF78070A
:2009970004F2900540EFF09005417433F09005427444F0900543746DF07851E2FE08E2FF6F
:2009B700900544EEF0EFA3F0785BE2FE08E2FF90054675F000EE127233A3EF1272331249C2
:2009D70020AF8290054A75F000EF127233785FE2FF90054875F000EF1272337863E2FF90D9
:2009F700054975F000EF1272337860E2FF90054B75F000EF1272337864E2FF90054C75F0E0
:200A170000EF1272337582B91208B71245DDAE82AF83C3EE9411EF94005001227879741140
:070A3700F290053E02449E0F
:200A3E00AE82AF83A3E0FDBD09178E828F83E0FCBCFE0E74052EFBE43FFC8B828C83E060F6
:200A5E0038ED24F640398E828F83E0FDBDFD3074072EFCE43FFD8C828D83E0702274082ED8
:200A7E00FCE43FFD8C828D83E0701474092EFEE43FFF8E828F83E070069002EC7401F02272
:200A9E00E5829002EDF09002E9E4F0780AF21248CA8582238583249002EDE0FDC3E523946A
:200ABE0008E52494005003020C1E900000C005124719AC82D005752608BCFE02800CBCFD86
:200ADE000280079002E9E0F58222BCFD1DAC2674042CF526900002C005124719E582D0050F
:200AFE0030E007AC26740D2CF526900001C005124719858225D00585262775280074FFC3B9
:200B1E009527FAE49528FC852529752A00C3E5299AE52A64808CF063F08095F04003020C6F
:200B3E001EE5272529FAE528352AFC8D067F009002E9E0F52BC005AB2B7D00EEC39BFEEFDF
:200B5E009DFFC3EE9AEF64808CF063F08095F0D0055003020C1EE5272529FEE528352AFFD2
:200B7E00C3E5239EE5249F5003020C1EC005E5262525FFE52B24EDFCE43401FE787AEFF2A7
:200B9E008C828E83C007C005124753D005D0079002E9E0FE7810E22EFB08E23400FC7A00B4
:200BBE00EE24EDFDE43401FE90074DEDF0EEA3F0E4A3F0900750EFF0E4A3F08B828C838A68
:200BDE00F0C007C0051271BFD0059002E9E0FE7810E22EFE08E23400FD8E828D83C0051263
:200BFE000A3ED005D0079002E9E02FF08F067F00E523C39EF523E5249FF524D005020ABA78
:200C1E009002E9E0F58222AF83E5829002F2F0EFA3F012637AE58260569002EFE0FEA3E045
:200C3E00FF9002F1E0FD9002F2E0FBA3E0FC9006D5EDF09006D6EBF0ECA3F09006D874EE7B
:200C5E00F07402A3F0E4A3F08E828F83126516E58260157471C0E0747BC0E07480C0E012C1
:200C7E0035AE1581158115819002EEE0F582229002F2E0FEA3E0FF7D009002EFE0FBA3E078
:200C9E00FC8B2C8C2D8D2E9002F1E0F9F87C0090074DE52CF0E52DA3F0E52EA3F090075028
:200CBE00E8F0ECA3F08E828F838DF0C0011271BFD00189822285822F12637AE582601CE532
:200CDE002F24EF400475820022E52F24DF4003752F0FE52F24E05003752F1F9002EBE0704F
:200CFE0003020DAE9002E9E0FEFC7D00E52F24DF5003752F20AA2F7B00C3EA9CEB9D506B36
:200D1E009002E9ECC3952FF09002F4E0FCA3E0FD9002EF74EDF07401A3F09002F1E52FF094
:200D3E008C828D83120C25AD828D30753100E52F24EDFAE43401FB8A338B347535009002B7
:200D5E00E9E0FC7D0090074DE533F0E534A3F0E535A3F0900750ECF0EDA3F09001ED75F0C8
:200D7E00001271BFD205AD308D82229002EBE4F0D2059002F4E0FCA3E0FD9002EF74EDF052
:200D9E007401A3F09002F1EEF08C828D83020C25C2051248CAAD82AE833007319002E9E06D
:200DBE00FCC3E52F9C500475820022D204C2079002F4E0FAA3E0FB9002EF74EDF07401A3D2
:200DDE00F09002F1ECF08A828B83020C25C204AB2F7C00C3EB9DEC9E50048B058C06900260
:200DFE00E9E4F0ED4E7003F58222900504E07045ED4E603D9002F4E0FBA3E0FC8D02787A6A
:200E1E00EAF28B828C83C002124753E582D00260209002E9EAF09002F4E0FBA3E0FC9002CE
:200E3E00EFEBF0ECA3F09002F1EAF09001ED020C2575820022780AE2B401028003020ED4A2
:200E5E00BD016FBE006C125EB5AB82AC83780BD3E29BF4B3FBB308E29CF4FC780DC3E29B39
:200E7E0008E29C50499002E9E0FC04F0EC24EDFCE43401FBC004C00312464BAA82D003D0E4
:200E9E00048C828B83EAF0780AE4F29002F4E0FBA3E0FC9002E9E0FA9002EF74EDF0740166
:200EBE00A3F09002F1EAF08B828C83020C2575820022780AE4F2780AE27003020F60780A9A
:200EDE00E2FB7C00C3ED9BEE9C5062C006C005125EB5AB82AC83D005D006780BD3E29BF496
:200EFE00B3FBB308E29CF4FC780DC3E29B08E29C50378D04787AECF29001EDC004124753DC
:200F1E00D0049002E9ECF0780AE4F29002F4E0FAA3E0FB9002EF74EDF07401A3F09002F1F5
:200F3E00ECF08A828B83020C25758200229002F4E0FBA3E0FC7810EBF208ECF2852F8202EE
:200F5E000A9EED4E7003021156900000C006C005124719858232D005D00674FEB532028068
:200F7E000A74FDB532028003021124BD0132BE002F9002E9E06003021156780A7401F21236
:200F9E005EB5E5828583F0780BF208E5F0F27808E2FA08E2FB780DEAF208EBF275820022DD
:200FBE00900001C006C005124719AB82D005D006780AEBF2BBE6005028C005C0068B027CA1
:200FDE000074192AFAE43CFC780FE2FE7F00C3EE9AEF64808CF063F08095F0D006D0055053
:200FFE0036780AE4F29002E9E0FF04F0EF24EDFFE43401FCC007C006C005C00412464BAA80
:20101E0082D004D005D006D0078F828C83EAF01DBDFF011E020F60780A74082BF274FDB536
:20103E00322F780AE2FF780A74042FF2C374029DE49E501D900002C006C005124719E582F8
:20105E00D005D00630E00A780AE2FF780A740D2FF29002E9E06056125EB5E5828583F07819
:20107E000BF208E5F0F2780AE2FC7F007808900756E2F008E2A3F08C828F8312727EE58262
:20109E008583F0780DF208E5F0F29002F4E0FCA3E0FF9002E9E0FB9002EF74EDF07401A3D0
:2010BE00F09002F1EBF08C828F83020C25780AE2FC7F00C3ED9CEE9F5037125EB5E5828521
:2010DE0083F0780BF208E5F0F2780AE2FC7F007808900756E2F008E2A3F08C828F831272FC
:2010FE007EE5828583F0780DF208E5F0F2758200229002F4E0FCA3E0FF7810ECF208EFF263
:20111E00852F82020A9E9002E9E0FF04F0EF24EDFFE43401FCC007C006C005C00412464BB6
:20113E00AB82D004D005D006D0078F828C83EBF01DBDFF011E020F609002F4E0FEA3E0FFC4
:20115E009002E9E0FD9002EF74EDF07401A3F09002F1EDF08E828F83020C25A204E433F5D8
:20117E008222A205E433F58222D20722E5829002F6F0E0780FF222AF83E5829002F7F0EF00
:20119E00A3F09002F7E0FEA3E0FF90073DEEF0EFA3F0E4A3F0A3F090000075F001E412701B
:2011BE0070AC82AD83780874012CF2E43D08F222E5829002FCF09002FBE0703D9002F9E089
:2011DE00FEA3E0FF7D009002FCE0FCFA7B0090074DEEF0EFA3F0EDA3F0900750EAF0EBA302
:2011FE00F09000F175F000C0041271BFD0049002EAECF0C206758200222006419002FCE013
:20121E00FF9002EAE0FEEFB506339002F9E0FDA3E0FE90076BEDF0EEA3F0E4A3F090076EB5
:20123E00EFF0E4A3F09000F175F0001274A7E5828583F045F07006C20675820122D20675EE
:20125E00820022AF83E5829002FDF0EFA3F07812C3E2F5F074FC95F05005781274FCF29058
:20127E0002FDE0FEA3E0FF90074DEEF0EFA3F0E4A3F07812900750E2F0E4A3F09001ED7589
:15129E00F0001271BF78129002E9E2F0C2049002EB7401F02268
:207B71006572726F72207768696C6520747279696E6720746F20656E6372797074206461C7
:037B91007461001C
:0A050A0078137441F278177464F25C
:2012B300AF82BF08028024BF0D028005BF7F3A801A90000A12495B7814E224FFF582E434A8
:2012D30002F583E4F090034604F0227814E270012290000812495B90002012495B90000871
:2012F30012495B7814E214F2227814E2B4450050428F067F008E828F83C007C0061276B398
:20131300E5828583F0D006D00745F0602E8E828F8312774FAE827814E2FF781404F2EF24BF
:20133300FFF582E43402F583EEF07F008E828F8302495B900345E4F07814F222AF82BF2B06
:201353000280047816E4F27816C3E2F5F0740495F0402C7816E275F003A4901371730213F7
:20137300960213800213800213870213967816E22401F22278167404F278177464F22278BF
:2013930016E4F278177464F2227817E260427817E214F27817E270387816E260087816E2E8
:2013B300B4042D800678167401F2229003457401F07816E4F29002FF7441F0900300745466
:2013D300F0900301E4F078147402F290034614F022900346E07001227814E2B40200E43328
:2013F300FF701C9002FFE0FEBE5214900300E0FEBE540C1252037814E4F2900346F022EF8A
:2014130060030214899002FFE0FFBF41028003021489900300E0FFBF545C900301E0FF606F
:2014330023BF26028023BF2B028023BF49028023BF4F028028BF5002801EBF5302802ABFCC
:201453005A31802A121492802D1217C880281218DF8023121620801E1218DC801978177412
:2014730064F2900345E4F0800D121721800843EF1080FE1214B47814E4F2900346F022749D
:2014930098C0E0747BC0E07480C0E07494C0E0747BC0E07480C0E012083FE58124FAF581C0
:2014B30022749BC0E0747BC0E07480C0E07494C0E0747BC0E07480C0E012083FE58124FA7D
:2014D300F58122E5812404F581900348E4F0A3F0A3F0A3F0900347E024FFF582E43402F592
:2014F30083E0FFFDBD300092104075ED24C69210406E900348E0FBA3E0FCA3E0FDA3E0FED9
:20151300900762EBF0ECA3F0EDA3F0EEA3F090000AE4F5F0C00712738FC8E58124FCC8A66A
:201533008208A68308A6F008F6D0077A00EF24D0FFEA34FFFA8F053395E0FEFFE58124FD3F
:20155300F8900348ED26F0EA0836A3F0EE0836A3F0EF0836A3F0900347E02401F00214E79C
:20157300E58124FCF58122E582900351F0E0F50F90034CE0FE750E00C3E50E9E400122C064
:2015930006C00612159B800E90034FE0C0E0A3E0C0E0850E8222A982AA83ABF0FCD006C0DB
:2015B30006C004C003C002C0011215C1800E90034DE0C0E0A3E0C0E0850E8222858210853C
:2015D300831185F012D001D002D003D004D006AE0E7F00A80F7D00C006C001C002C003C082
:2015F30004C010C011C012C006C007C000C00574A1C0E0747BC0E07480C0E012083FE581B8
:2016130024F2F581D006050ED00602158B900302E0FF6030BF3002802BBF31028048BF327F
:20163300028065BF33030216B8BF34030216D8BF35030216F8BF3603021718BF37030217C3
:201653001B02171E74E1C0E0747FC0E07480C0E07494C0E0747BC0E07480C0E012083FE500
:201673008124FAF5812274F8C0E0747FC0E07480C0E07494C0E0747BC0E07480C0E0120808
:201693003FE58124FAF581227482C0E0E4C0E074AEC0E0747BC0E07480C0E012083FE5811E
:2016B30024FBF58122784FE2FE7F00C006C00774AEC0E0747BC0E07480C0E012083FE58109
:2016D30024FBF581227850E2FE7F00C006C00774AEC0E0747BC0E07480C0E012083FE581E8
:2016F30024FBF5812290034C7411F090034D74BDF07430A3F090034F743CF0742DA3F07569
:20171300825302157A025D4F024B140214B49003477403F01214D6900348E0FCA3E0FDA360
:20173300E0A3E0BC110040030214B4900347E0FF24FFF582E43402F583E0FEBE3D02803BDE
:20175300BE3F6F8C82122D3CAA82AB83ADF0FE900348EAF0EBA3F0EDA3F0EEA3F0C002C0D6
:2017730003C005C00674B2C0E0747BC0E07480C0E012083FE58124F9F58122EC6034900358
:2017930047EF04F0C0041214D6D004900348E0FBA3E0FDA3E0FEA3E0FF7841EBF208EDF2C2
:2017B30008EEF208EFF28C82122BC4E58260030214920214B4900302E0FFBF45030218BCA9
:2017D300BF46028017BF5002805CBF5402805ABF55028014BF570280090218D912302302D7
:2017F3001492122FC602149290075874B7F0747BA3F07480A3F090030375F00012729EE56C
:20181300828583F045F0701B75B7A575B7F1758F0390F7FE74FFF0758F00AEEF4306108E16
:20183300EF80FE0214B4024FFA90075874BDF0747BA3F07480A3F090030375F00012729EDD
:20185300E5828583F045F070057815E4F22290075874BEF0747BA3F07480A3F090030375C2
:20187300F00012729EE5828583F045F0700C7815E2FE6306017815EEF22290075874C4F0B6
:20189300747BA3F07480A3F090030375F00012729EE5828583F045F0700C7815E2FE630629
:2018B300027815EEF2220214B4900303E0FFBF3D028006BF3F1002347A9003041233B1E591
:2018D3008260030214920214B40214B49003477404F01214D6900348E0FCA3E0FDA3E0FEDE
:2018F300A3E0900302E0FFBF4103021A27BF43028040BF46030219C7BF4C03021A17BF509A
:20191300028003021A63900303E0FFBF3D028003021A639003477405F01214D6900348E041
:20193300FBA3E0A3E0A3E08BFC758201122877021492900347E0FF24FFF582E43402F58353
:20195300E0FEBE3D028041BE3F028003021A638C821231C2AE827D007B007A00900348EE59
:20197300F0EDA3F0EBA3F0EAA3F0C006C005C003C00274B2C0E0747BC0E07480C0E01208D6
:201993003FE58124F9F58122900347EF04F0C0041214D6D004900348E0FBA3E0A3E0A3E04A
:2019B300C0038C82123171AF821581EF60030214920214B4900347E024FFF582E43402F5A1
:2019D30083E0FFBF3F028003021A638C821231FDAF827E007D007C00900348EFF0EEA3F05F
:2019F300EDA3F0ECA3F0C007C006C005C00474B2C0E0747BC0E07480C0E012083FE58124F3
:201A1300F9F58122123210E582600512149280030214B422900303E0FFBF3D3490034774E8
:201A330005F01214D6900348E0FCA3E0FDA3E0FEA3E0FFBC0111BD000EBE000BBF000875CA
:131A5300820212287780067582031228770214920214B4A8
:207B940025730A004F4B004552524F5200256325753A25733D256C750A0025750A00256C95
:157BB400750A00504441544500003D52535349003D54444D002F
:201A6600AF83E582900386F0EFA3F0900386E0FEA3E0FF900385E0FD7C008D027B001ABA74
:201A8600FF011B8C007900C3E89AE964808BF063F08095F05046C007C006C005C004126F0E
:201AA600A2AA82D004D005D006D0078DF0EA84E5F02EFAE43FFB8A828B83E0F513C005EC43
:201AC6002EF8E43FFD88828D83E0F98A828B83F088828D83E513F00CD005809E22758203A0
:201AE600122D3C12701A758210122D3CAC82AD83AEF0FFEC4D4E4F601412350985820C851A
:201B0600830D758220120859AF8302701A227F007818C3E2F5F0EF95F0500FEF2453F5827C
:201B2600E43403F583EFF00F80E6121AE37818E2FF7E008F047D001CBCFF011D8E027B00AA
:201B4600C3EA9CEB64808DF063F08095F05042C007C006126FA2AC82D006D0078FF0EC8486
:201B6600E5F02453FCE43403FD8C828D83E0F514C007EE2453FAE43403FF8A828F83E0FBBF
:201B86008C828D83F08A828F83E514F00ED00780A2227819E22453F582E43403F583E0F538
:201BA6008222781AE22453F582E43403F583E0F582227819E2FE7F000EBE00010F7818E2CF
:201BC600FC7D0090075EECF0EDA3F08E828F83C005C004127327AE82D004D0057819EEF294
:201BE600900352E060077819791AE2F3227819E27022781AE2FE7F000EBE00010F90075ED1
:201C0600ECF0EDA3F08E828F83127327AE82AF83781AEEF222E58290038AF0E0FF90035266
:201C2600F0EF6007781A7919E2F322781AE2FE7F000EBE00010F781890075EE2F0E4A3F0A2
:0E1C46008E828F83127327AE82781AEEF222FE
:201C5400AFF0AE83E582900487F0EEA3F0EFA3F020080475820022781BC3E2F5F074FC95C4
:201C7400F050051220058047900487E0FDA3E0FEA3E0FF8D828E838FF0781BE212723378CF
:201C94002CE2FD08E2FE7F0090074D748BF07403A3F0E4A3F0781B900750E2F0E4A3F08D1A
:201CB400828E838FF01271BF122005758201227851E2FE08E2FFBEFF05BFFF02800C0EBEFF
:201CD40000010F7851EEF208EFF275820022AF8275A702C2A3C2FF75A3FF782EE2FD08E23A
:201CF400FE8F041FEC601130F9FD8D828E83E0F5A3A3AD82AE8380E930F9FDAEA15306804B
:201D14007F00BE8005BF000280F1C2FFD2A375A70022200805781CE260047582012275822F
:201D340031122503E58230E4047582012275820022A2A8E433FFC2A81009028009EF24FFF2
:201D540092A875820122EF24FF92A875820022781DE2F582227582260225037828E2F58266
:201D740022758208122503AF828F05430501C007C0057582081224C61581D0075307FEC0DA
:201D9400077582081224C6158122758208122503AF828F05430502C007C00575820812246C
:201DB400C61581D0075307FDC0077582081224C6158122E582FF24035019C00774C9C0E071
:201DD400747BC0E07480C0E01235AE158115811581D007C007121D75D007C007C007758277
:201DF4003E1224C61581D007EFFE24DF50027E207830792EE2F308E209F38E82C007C006A1
:201E1400121CE2D006D007EFC39EFF7830E22EF208E23400F2C007E4C0E07582051224C6A5
:201E34001581E4C0E07582061224C61581C20990048AE4F07409C0E07582071224C615817B
:201E5400125EB5AD82AE83D007C007C006C005125EB5AB82AC83D005D006D007EBC39DFB77
:201E7400EC9EFC7832C3E2F5F0EB95F008E2F5F0EC95F04003021FA9758203C007C006C090
:201E940005122503AC82D005D006D00790048AE06040EF603DEC30E5397B04BF0400500247
:201EB4008F037830792EE2F308E209F38B82C007C006C005C003121CE2D003D005D006D0F2
:201ED40007EFC39BFF7830E22BF208E23400F2021E5D90048AE06040EF603DEC20E6397B97
:201EF40004BF040050028F037830792EE2F308E209F38B82C007C006C005C003121CE2D017
:201F140003D005D006D007EFC39BFF7830E22BF208E23400F2021E5DEC30E722121D757867
:201F340053E2FB08E2FCBBFF05BCFF02800C0BBB00010C7853EBF208ECF2758200227582FE
:201F540002C007C006C005122503AC82D005D006D007EC30E10990048A7401F0021E5D9099
:201F7400048AE07003021E5DEC30E103021E5DEF601F7853E2FE08E2FFBEFF05BFFF02806E
:201F94000C0EBE00010F7853EEF208EFF275820022758201227853E2FE08E2FFBEFF05BF69
:201FB400FF02800C0EBE00010F7853EEF208EFF275820022E58290048BF0A2A8E433FFC25F
:201FD400A8D2A590048BE0FE78347930E2F308E209F378367932E2F308E209F38E82C007D6
:201FF400121DC7AE82D007C2A5EF24FF92A88E8222C2A8C208781BE4F2C209781CE4F274A5
:2020140013C0E07582051224C615817440C0E07582061224C6158112257C121D75121D9E64
:202034007405C0E07582071224C61581D2A875820122900032125E3F758201122503AF827B
:20205400BFFF028005BF05005004758200221225DC758201122503E582FF20E0030225DC45
:20207400EF30E1047582012275820022AC82AD83AEF0FFC3ED941CEE944EEF940E400E7497
:20209400C09C74F79D74BA9E74379F5004758200227820ECF208EDF208EEF208EFF28C8209
:2020B4008D838EF0EF12265275820122AC82AD83AEF0FFC374F09C74E89D74269EE49F5029
:2020D400047582002278387410F2087427F208E4F208F28C828D838EF0EF122588AC82AD17
:2020F40083AEF0FF7824ECF208EDF208EEF208EFF2C00475827A1224C6158175820122E5B4
:202114008290048CF07829E2FFE0FEB50701227829EEF2C0067582791224C61581C20922A4
:202134007829E2F58222AF82C007E4C0E07582051224C61581E4C0E07582061224C6158152
:2021540012257C7415C0E075820B1224C615817412C0E075820C1224C6158175820012280F
:202174007774B6C0E07582091224C61581D007EF249B5010C00774C0C0E07582581224C6AD
:202194001581D0077820E2FB08E2FC08E2FD08E28B828C838DF0C0071226527824E2FEC06C
:2021B4000675827A1224C61581D007900503E06029C0077488C0E07582301224C61581749A
:2021D40002C0E07582331224C61581E4C0E07582321224C61581D0078040C007748DC0E04F
:2021F4007582301224C615817422C0E07582331224C61581740CC0E07582321224C6158145
:2022140074FFC0E07582431224C6158174FFC0E07582441224C61581D007C007743CC0E0FD
:2022340075827C1224C615817420C0E075827D1224C615817432C0E075827E1224C61581FE
:20225400782B7410F2782BE2FEC0067582341224C615817428C0E07582351224C6158175DC
:202274008200122417D0077E00EE907BE693C39F50060EBE0C0040F1EEFF907BE693FE780C
:2022940028F2BE200040047E0D80027E2D75820DC007C006122D3CAA82AB83ACF0FDD00661
:2022B400D007EA4B4C4D60117828E2FD247F40098E047D004304028C06C007C006758270AB
:2022D4001224C615817423C0E07582711224C615817444C0E075821D1224C61581D00778DA
:2022F40028E2FEBEC8005012C007740AC0E075821E1224C61581D0078010C0077402C0E00A
:2023140075821E1224C61581D007784FE2B4433A7E00EE75F00DA424F3FC747B35F0FDEFBC
:202334002CF582E43DF583E493FDEE907BDA93FCC007C006C0058C821224C61581D006D0DF
:20235400070EBE0C0040CB022413784FE2B447397E00EE75F00DA4248FFC747C35F0FDEF37
:202374002CF582E43DF583E493FDEE907BDA93FCC007C006C0058C821224C61581D006D09F
:20239400070EBE0C0040CB8076784FE2B486397E00EE75F00DA4242BFC747D35F0FDEF2C32
:2023B400F582E43DF583E493FDEE907BDA93FCC007C006C0058C821224C61581D006D00784
:2023D4000EBE0C0040CB80377E00EE75F00DA424C7FC747D35F0FDEF2CF582E43DF583E4C4
:2023F40093FDEE907BDA93FCC007C006C0058C821224C61581D006D0070EBE0C0040CB75E0
:20241400820122E58290048DF07404C0E075826D1224C6158190048DE0FFF582C0071231FC
:20243400C2AE82D007BEFF0280078EFC782AEFF2227E009007737402F0E4A3F08F828E83C3
:202454001275DFAE82EE907E6393F5FCEE2EFE782AEEF222782AE2F58222AF83E5829004E7
:202474008EF0EFA3F090048EE0FEA3E0FF8E05781EEDF2781FEFF2900503E07034C007C0A3
:2024940005C00775823A1224C61581D005C005C00575823B1224C61581D005D007C005C045
:2024B4000775823F1224C615817582401224C6158122AF82A2A89210C2A875A702C2A3C282
:2024D400FF7E004307808FA330F9FDA881181886A330F9FDAEA15306807F00BE8005BF00F8
:2024F4000280F1C2FFD2A375A700A21092A822AF82A2A89210C2A875A702C2A3C2FF8FA3F8
:2025140030F9FD75A30030F9FDAEA15306807F00BE8005BF000280F1AFA3C2FFD2A375A783
:2025340000A21092A88F8222AF8275A702C2A3C2FF75A37F30FFFD85A3E0E58124FDF88623
:20255400050886068F041FEC6016C2FF75A30030FFFD8D828E83E5A3F0A3AD82AE8380E4B6
:20257400C2FFD2A375A70022758203122503758204022503AF82AE83ADF0FC783CEFF208E2
:20259400EEF208EDF208ECF2783BE2C313FF18E213FE18E213FB18E213FA783CE22AFA0834
:2025B400E23BFB08E23EFE08E23FFF783890073DE2F008E2A3F008E2A3F008E2A3F08A82C8
:2025D4008B838EF0EF027070E4C0E07582051224C61581E4C0E07582061224C6158112252E
:2025F4007C7481C0E07582071224C61581900002125E0430810B125E35E58260F67582000B
:2026140022E4C0E07582051224C615817402C0E07582061224C61581900014125E04125E45
:2026340035E5827015758203122503758204122503E58230E1E87582012275820022858262
:202654001585831685F017F518C3E4951574389516749C9517741C951840030227198515DA
:2026740019E51624C8F51AE5173463F51BE51834E3F51C90073DE4F0742DA3F07431A3F05B
:202694007401A3F0851982851A83851BF0E51C127070AC82900490ECF0900762ECF0E4A3CF
:2026B400F0A3F0A3F0902D0075F031740112738FAC82AD83AEF0FFE519C39CFCE51A9DFD27
:2026D400E51B9EFEE51C9FFF78387471F2087402F208E4F208F28C828D838EF0EF12258892
:2026F400AC82AD83AEF0FFEC2CFCED33FDEE33FEEF33FF900490E0FB7A0043032090049057
:20271400EBF00227E1AF15E51624E4FEE51734B1FDE51834F1FC90073D7480F07496A3F0AA
:202734007498A3F0E4A3F08F828E838DF0ECC007C006C005C00412707085821985831A8515
:20275400F01BF51CAB19900490EBF0900762EBF0E4A3F0A3F0A3F090968075F098E4127309
:202774008F85821985831A85F01BF51CD004D005D006D007EFC39519F519EE951AF51AED76
:20279400951BF51BEC951CF51C78387471F2087402F208E4F208F2851982851A83851BF016
:2027B400E51C12258885821985831A85F01BF51CE5192519FCE51A33FDE51B33FEE51C3396
:2027D400FFEC2CFCED33FDEE33FEEF33FF900490E04440F0C005C004E0C0E0758275122452
:2027F400C61581D004D0058D07C005C004C0077582761224C61581D004D005C00475827702
:202814001224C615812275A70FAEBE7F00EE2EFEEF33FFEE2EFEEF33FFE5BD232354037CA9
:20283400004206EC420775A700D2EC20ECFDADBE7C00AABD7B00EA4204EB4205ECC39EFEAE
:20285400ED9FFF9007737402F0E4A3F08E828F831275DFE5828583F0242DFEE435F08E82A3
:20287400F58322E582900491F0E0FF24FC4063EF2F9028897380068059805780257418C093
:20289400E075820D1224C61581758208122503E582541FFF430780C0077582081224C615FB
:2028B4008122758208122503E582541FFF430720C0077582081224C61581740AC0E0758278
:2028D4000D1224C61581E4C0E075820E1224C6158122758208122503E582541FFFC00775BA
:2028F40082081224C61581740AC0E075820D1224C615817404C0E075820E1224C615812223
:20291400C022C0E0C0F0C082C083C007C006C005C004C003C002C001C000C0D075D0007586
:202934008204122503AF82758203C007122503AE82D007EE30E44D781CE2FC7D0074322C80
:20295400FCE43DFDC374FC9CE49D5003022A26781CE2248BFCE43403FDC007C006C004C00A
:202974000575823212253C15811581781CE2FD781C74322DF2758226122503E582D006D046
:2029940007781DF2EF30E611D209758226C006122503E582D006781DF2900503E07004EEE9
:2029B40020E06FEE30E16975824B122503E582FF2403405E781CC3E2F5F0EF95F0405378E8
:2029D4001CC3E29F5022781CE2248BFDE43403FE781CD3E29FF4FCC007C005C0068C82128C
:2029F400253C15811581D007781BEFF2D208E4C0E07582051224C61581E4C0E0758206126C
:202A140024C615817402C0E07582071224C61581801E7851E2FE08E2FFBEFF05BFFF02804A
:202A34000C0EBE00010F7851EEF208EFF2122005D0D0D000D001D002D003D004D005D0066C
:0D2A5400D007D083D082D0F0D0E0D0223265
:207BC9006F76657273697A6564207061636B6574001C1F2021222324252A6E6F7202040898
:207BE9001013182030406080C0FA2727272E1601050B9A888A8C8D0303030303030303036D
:207C090003030303F4FA7D3F69A77D535E7D5E3F302000010201000101010101020241832C
:207C2900060C37C406895D065D0CAA8912254A4C9C25378625864AAB0001020402010203A6
:207C4900020202040785080E12728A0E18BB0EBBEAFF1D1D1D1E1E1E20304150505050103C
:207C69002041839BC4080C101820314062C58912A69C314A6293C5270003060D1A1E2633E4
:207C89004D669ACDFEFE2B2B2B2E1601050B9A888A8C8D0303030303030303030303030303
:207CA900F4FA7D3F69A77D535E7D5E3F30200001020100010101010102024183060C37C48B
:207CC90006895D065D0CAA8912254A4C9C25378625864AAB00010204020102030202020409
:207CE9000785080E12728A0E18BB0EBBEAFF1E1E1E21212121304150505050102041839B1A
:207D0900C4080C101820314062C58912A69C314A6293C5270003060D1A1E26334D669ACDA8
:207D2900FEFE010101010101050B9A888A8C8D03030303030303030303030303D0E8F4FA96
:207D4900D3A77D535E7D5E3F30E0602000000001010101010202102041839BC406895D067A
:207D69005D0CAA62C58912A69C25378625864AAB000000010101020302020204072344855C
:207D890008398A0E18BB0EBBEAFF1C1C1C1C1C1E20304150505050102041839BC4080C108A
:207DA9001820314062C58912A69C314A6293C5270003060D1A1E26334D669ACDFEFE0101F2
:207DC90001010101050B9A888A8C8D03030303030303030303030303D0E8F4FAD3A77D53AA
:207DE9005E7D5E3F30E0602000000001010101010202102041839BC406895D065D0CAA62AF
:207E0900C58912A69C25378625864AAB0000000101010203020202040723448508398A0E57
:207E290018BB0EBBEAFF1E1E1E1E1E1E20304150505050102041839BC4080C10182031400F
:207E490062C58912A69C314A6293C5270003060D1A1E26334D669ACDFEFEEBE6E0DAD3CED0
:0A7E6900C9C4BEB8B2ABA49688509D
:202A610075B7A575B7F122D310AF01C3C0D0AF848F055305034305308D84C007122A61D080
:202A810007758F0390F80074FFF0758F008F84D0D092AF22D310AF01C3C0D0AE82AF83AD2D
:202AA100848D035303034303308B84758F004307F88E828F83E493FF758F008D848F82D04F
:202AC100D092AF22D310AF01C3C0D0AE82AF83AD848D035303034303308B84C007C006C08E
:202AE10005122A61D005D006D007758F054307F88E828F837840E2F08D84758F00D0D09273
:022B0100AF2201
:02F7FE003DC20A
:202B0300AF82BF1100400475820022EF24F05003022BC0EF2F2F902B1D73022B4D022B5181
:202B2300022B58022B6C022B70022B84022B98022B84022BC0022BC0022BC0022BC0022BCF
:202B4300C0022BC0022BC0022BAC75820022AF368F8202497CC3E4953674019537E49538C5
:202B6300E4953950587582002275820122C3741E9536E49537E49538E4953950407582000B
:202B830022C374019536E49537E49538E49539502C75820022C374029536E49537E4953800
:202BA300E49539501875820022C374839536E49537E49538E49539500475820022758201E2
:202BC30022AF827841E2F53608E2F53708E2F53808E2F5398F82C007122B03E582D00770CE
:202BE30003F58222BF0402801FBF0603022CCEBF0703022D19BF0B02802DBF0C02806FBF09
:202C03000E03022CE3022D197841E2F582C007122417122468AE82D0077841EEF208E4F205
:202C230008F208F2022D197845E4F208F208F208F278497464F208E4F208F208F27841E2DC
:202C4300F58208E2F58308E2F5F008E2C0071230ECAB82AC83ADF0FED0077841EBF208EC92
:202C6300F208EDF208EEF27889EBF2022D197841E2F5F008E242F008E242F008E245F06033
:202C83004278457419F208E4F208F208F2784974DCF208E4F208F208F27841E2F58208E210
:202CA300F58308E2F5F008E2C0071230ECAB82AC83ADF0FED0077841EBF208ECF208EDF2BA
:202CC30008EEF278417991E2F3804B7841E2FE900504F07841EEF208E4F208F208F2803663
:202CE3007841E2F5F008E242F008E242F008E245F024FFE433FE900505F0EE60067D017EE8
:202D03000080047D007E007841EDF208EEF2EE3395E008F208F2EF75F004A42492F582748A
:202D23000435F0F5837841E2F008E2A3F008E2A3F008E2A3F075820122AF82BF110040078B
:202D4300900000E4F5F022EF75F004A42492F582740435F0F583E0FCA3E0FDA3E0FEA3E057
:202D63008C828D838EF02285823A85833B9004F6E0FCA3E0FD9004F8E0FB8C018D028B001A
:202D83007F00E82CF8EF3DFFC3E998EA9F5041E9C39CFEEA9DFFEE253AFEEF353BFF89829C
:202DA3008A83C007C006C005C004C003C002C001122A95A882D001D002D003D004D005D0BD
:202DC30006D0078E828F83E8F009B900B10A80AE853A0C853B0D8B82C002C001120859AE25
:202DE30082AF83D001D002740129FCE43AFD8C828D83C007C006C002C001122A95AD82D0C6
:202E030001D0028D047D0089828A83C005C004122A95AB82D004D005D006D0077A00EB4232
:202E230005EA4204EEB50506EFB504028004758200227582012285823C85833D9004F9E056
:202E4300FCA3E0FD9004FBE0FB8C3E8D3F8B027F00EA2CFAEF3DFFC3E53E9AE53F9F5036E3
:202E6300E53EC39CFEE53F9DFFEE253CF582EF353DF5837840E0F2853E82853F83C005C0D5
:202E830004C003122AC5D003D004D005053EE4B53EBB053F80B7853C0C853D0D8B821208D8
:202EA30059AE82AF837840EEF2853E82853F83C007C006122AC5D006D0077401253EFCE43D
:202EC300353FFD7840EFF28C828D83022AC5D310AF01C3C0D0123023900000122A95E582C3
:202EE300FF24BB4005BF30005006758200022FC19004F67401F0E4A3F09004F8EFF0900419
:202F030092122D6AE5827005F582022FC1758200122D3CAC82AD83AEF0FFBC1A0BBD00081B
:202F2300BE0005BF00028006758200022FC17F00EF75F004A42492FD740435F0FE8D828E35
:202F430083E0F536A3E0F537A3E0F538A3E0F5398F82C007C006C005122B03E582D005D021
:202F630006D0077032EF75F007A42473FB747E35F0FC8B828C83A3A3A3E493F9A3E493FAA2
:202F8300A3E493FBA3E493FC8D828E83E9F0EAA3F0EBA3F0ECA3F00FBF440040939004F621
:202FA3007481F07401A3F09004F87420F09004D6122D6AE5827004F5828003758201D0D091
:202FC30092AF22D310AF01C3C0D0900492741AF0E4A3F0A3F0A3F0122A6878407444F290CE
:202FE3000000122AC59004F97401F0E4A3F09004FB7444F0900492122E3978407420F290C0
:203003000180122AC59004F97481F07401A3F09004FB7420F09004D6122E39D0D092AF22B8
:203023007F00EF75F004A42492FD740435F0FEEF75F007A42473FB747E35F0FC8B828C8304
:20304300A3A3A3E493F9A3E493FAA3E493FBA3E493FC8D828E83E9F0EAA3F0EBA3F0ECA352
:20306300F00FBF110040BB22AF827E008F037C007D40EE75F007A42473F582747E35F0F5CF
:2030830083E493F8A3E493F9A3E493FA900758E8F0E9A3F0EAA3F08B828C838DF0C007C034
:2030A3000612729EE5828583F0D006D00745F060060EBE110040B58E8222AF82BF110050E9
:2030C30021EF75F007A42473F582747E35F0F583E493FDA3E493FEA3E493FF8D828E838FDC
:2030E300F02290000075F00022AC82AD83AEF0FF7845C3E2F5F0EC95F008E2F5F0ED95F0B0
:2031030008E2F5F0EE95F008E2F5F0EF95F0500D7845E2FC08E2FD08E2FE08E2FF7849C3F3
:20312300E29C08E29D08E29E08E29F500D7849E2FC08E2FD08E2FE08E2FF8C828D838EF026
:20314300EF22D310AF01C3C0D0AE82AF83758F0175B7A575B7F18E828F83E58124FDF8E699
:20316300F0758F00D0D092AF22E493F58222AF82758433EF24E14043A8811818B6FF0280E1
:203183003A7E0074DE2FFC74FF3EFD8C828D83C007C00612316CAD82D006D007BDFF1C74C7
:2031A300DE2FFF74FF3EFEA8811818E6C0E08F828E8312314515817582012275820022AF50
:2031C300827E007584337D00ED90F7DE9362060DBD1F0040F390F7FDE493FDBDFF0280168E
:2031E30090F7FDE493FDB5060DEF24E14008EF90F7DE93F582227582FF22AF827E0074DE37
:203203002FFF74FF3EFE8F828E8302316C7F0075843390FFFDC00712316CAE82D007BEFF9C
:203223000280030232977E008E047D008C028D0374DE2AFA74FF3BFB8A828B83C007C006CA
:20324300C005C00412316CAB82D004D005D006D007EB6207BBFF1DC004C00574EAC0E0748A
:203263007EC0E07480C0E012083FE58124FBF581758200220EBE1F0040AEC00790FFFD12EE
:203283003145158174FEC0E090FFFF12314515817582012275820022AF82BF3000400DEFD2
:2032A30024C640088F06EE24D0F58222BF4100400DEF24B940088F0674C92EF58222BF61AF
:2032C30000400BEF2499400674A92FF5822275820022AF83E5829004FEF0EFA3F09004FE81
:2032E300E0FEA3E0FF9004FCE0F540A3E0F541784EE4F2784E794DC3E3F5F0E295F0506A39
:20330300784EE27B0025E0FAEB33FBEA2EF582EB3FF583E0F582C007C006C003C002123291
:203323009BAD82D002D003D006D007EDC454F0FD0ABA00010BEA2EF582EB3FF583E0F58224
:20334300C007C006C00512329BAC82D005D006D007EC2DFC784EE22540F582E43541F5831E
:20336300ECF0784EE22401F2808922AF829005007462F07E00C3EE9F5033EE24D6FCE434AB
:2033830004FD7B0090074D7400F07405A3F0E4A3F090075004F0E4A3F08C828D838BF0C038
:2033A30007C0061271BFD006D0070E80C822AF83E582900501F0EFA3F0758210122D3CAC07
:2033C3008253040F0CECC40354F8FF900501E0FDA3E0FE8D028E037C008A828B838CF0C012
:2033E30007C006C0051277F3AB82D005D006D0078F027C00EA2AF542EC33F5438B448C45BE
:20340300C3E5449542E54564808543F063F08095F050268F8212336EC042C043C044C04580
:203423007407C0E0747FC0E07480C0E012083FE58124F9F58175820122C007C006C005C0C9
:2034430002C004742BC0E0747FC0E07480C0E012083FE58124FBF581D005D006D0079004D3
:20346300FC74D6F07404A3F0784DEFF28D828E831232D575820122758210122D3CAC82ADB2
:203483008353040F0CECC40354F8FF7E00C3EE9F505EEE24D6F582E43404F583E024F04093
:2034A3001DC007C0067437C0E0747FC0E07480C0E012083F158115811581D006D007EE2413
:2034C300D6F582E43404F583E0FD7C00C007C006C005C0047439C0E0747FC0E07480C0E025
:2034E30012083FE58124FBF581D006D0070E809D743CC0E0747FC0E07480C0E012083F15B8
:0A3503008115811581229004D62263
:207E73003E7F801A000000457F8039000000527F80400000005C7F8019000000627F8014A1
:207E93000000006A7F80000000006E7F8001000000767F8000000000807F8000000000897B
:207EB3007F8000000000927F80000000009F7F8064000000AA7F8000000000B37F800000C2
:207ED3000000BE7F8000000000C57F8083000000D07F800000000064426D206C6576656C71
:207EF300202575206E6F742063616C696272617465640A004552524F52202D204B657920CF
:207F13006C656E6774683A25752C2052657175697265642025750A006B6579206C656E20DF
:207F330025640A0030002578000A00464F524D41540053455249414C5F535045454400412A
:207F530049525F5350454544004E45544944005458504F57455200454343004D41564C49B2
:207F73004E4B004F5050524553454E44004D494E5F46524551004D41585F46524551004E73
:207F9300554D5F4348414E4E454C5300445554595F4359434C45004C42545F5253534900EA
:207FB3004D414E4348455354455200525453435453004D41585F57494E444F5700454E43EE
:0E7FD30052595054494F4E5F4C4556454C0094
:060400000204A902291408
:01040B0032BE
:0104130032B6
:01041B0032AE
:03042300023F98FD
:03042B00025E4A24
:010433003296
:01043B00328E
:010443003286
:01044B00327E
:010453003276
:01045B00326E
:010463003266
:01046B00325E
:03047300025DBC6B
:01047B00324E
:010483003246
:01048B00323E
:010493003236
:01049B00322E
:0304A3000263767B
:03052C000204A620
:0304A60002350D0F
:20350D00758433E5C4784FF2E5C37850F2122ED1E5827003123023758206122D3CAC829028
:20352D000504ECF0758205122D3CAC82AD83AEF0FF900503EC4D4E4F24FFE433F075820E8A
:20354D00122D3CAC82AD83AEF0FF900505EC4D4E4F24FFE433F01235E81236A0122005E51B
:20356D0082701574FCC0E0747FC0E07480C0E01235AE158115811581758210122D3CAC8299
:20358D008C821263E5E58270157416C0E07480C0E07480C0E01235AE15811581158102526D
:2035AD00C290802F75F0801276EFE58124FCFFC007E58124FBF886820886830886F012052A
:2035CD00A1158190803A75F0801276EFD2AFD2AC9003E8125E3F43EF1080FE53D9BFAEB2CD
:2035ED004306808EB275B64075A90075FF807E5E7F011EBEFF011FEE4F70F775EF0675D48A
:20360D00CF75D5FF75D62875A41075A70F75A41075A70075E101AEE24306418EE2AEA64301
:20362D0006FD8EA675A70FAEA54306F58EA575A6FDAEB14306C08EB1AEA14306C08EA1759C
:20364D00A70275A14075F80075A200AEF84306018EF8D2A375A700C289125EF3758201121B
:20366D002D3CAC828C8212417A75B800D2AFC2B7C2B6D2EF75BCF975BA0075BB1B75D1077A
:20368D0075D98875DF0075DA4275FC8075D84075E34022122046E5827015743BC0E0748083
:2036AD00C0E07480C0E01235AE158115811581784FE2B44302801C784FE2B44702804478F2
:2036CD004FE2B48602806C784FE2B4910302376E02379D9005067490F074D1A3F074CFA3C9
:2036ED00F07419A3F090050A7470F0745EA3F074EAA3F07419A3F0900512740AF07818F22D
:20370D000237D59005067480F074A1A3F07403A3F0741CA3F090050A74C0F074E3A3F07419
:20372D0012A3F0741CA3F0900512740AF07818F20237D5900506E4F074A1A3F074BCA3F035
:20374D007433A3F090050A7480F07425A3F074DBA3F07433A3F0900512740AF07818F28040
:20376D006790050674C0F074CAA3F07489A3F07436A3F090050AE4F07428A3F023A3F074AC
:20378D0037A3F09005127414F078187432F28038900506E4F0A3F0A3F0A3F090050AF0A3F9
:2037AD00F0A3F0A3F0900512F0784FE2FE7F00C006C0077453C0E07480C0E07480C0E012FB
:2037CD0035AEE58124FBF58175820A122D3CAC82AD83AEF0FFEC4D4E4F601175820A122D00
:2037ED003CAC82AD83AEF0FF7818ECF2758208122D3CAC82AD83AEF0FFEC4D4E4F603975BE
:20380D008208122D3CAC82AD83AEF0FF900762ECF0EDA3F0EEA3F0EFA3F09003E8E4F5F0FF
:20382D0012738FAC82AD83AEF0FF900506ECF0EDA3F0EEA3F0EFA3F0758209122D3CAC82C9
:20384D00AD83AEF0FFEC4D4E4F6039758209122D3CAC82AD83AEF0FF900762ECF0EDA3F054
:20386D00EEA3F0EFA3F09003E8E4F5F012738FAC82AD83AEF0FF90050AECF0EDA3F0EEA359
:20388D00F0EFA3F0758204122D3CAC82AD83AEF0FFEC4D4E4F6012758204122D3CAC82AD9F
:2038AD0083AEF0FF900512ECF0900512E0FF7E007D007C007845E4F208F208F208F2784919
:2038CD00741EF208E4F208F208F28F828E838DF0EC1230ECAC827818E2FB7D007E007F00B7
:2038ED0078457401F208E4F208F208F278497432F208E4F208F208F28B828D838EF0EFC050
:20390D00041230ECAB82AD83AEF0FFD0047818EBF2784FE2B44302801E784FE2B447030244
:20392D0039E7784FE2B48603023A8C784FE2B49103023B31023BD3900506E0FBA3E0FDA3A4
:20394D00E0FEA3E0FF78457480F2087423F20874ADF2087418F27849E4F208740BF2087499
:20396D006BF208741BF28B828D838EF0EFC0041230ECAB82AD83AEF0FF900506EBF0EDA3D8
:20398D00F0EEA3F0EFA3F090050AE0FBA3E0FDA3E0FEA3E0FF78457480F2087423F208747A
:2039AD00ADF2087418F27849E4F208740BF208746BF208741BF28B828D838EF0EF1230ECAB
:2039CD00AB82AD83AEF0FFD00490050AEBF0EDA3F0EEA3F0EFA3F0023BF6900506E0FBA3C3
:2039ED00E0FDA3E0FEA3E0FF78457480F2087474F20874D2F208741AF278497480F208746A
:203A0D00CEF2087434F208741DF28B828D838EF0EFC0041230ECAB82AD83AEF0FF9005069B
:203A2D00EBF0EDA3F0EEA3F0EFA3F090050AE0FBA3E0FDA3E0FEA3E0FF78457480F20874FF
:203A4D0074F20874D2F208741AF278497480F20874CEF2087434F208741DF28B828D838E70
:203A6D00F0EF1230ECAB82AD83AEF0FFD00490050AEBF0EDA3F0EEA3F0EFA3F0023BF6909E
:203A8D000506E0FBA3E0FDA3E0FEA3E0FF78457440F20874B6F208749AF2087432F27849C0
:203AAD007440F2087410F20874FDF2087434F28B828D838EF0EFC0041230ECAB82AD83AE41
:203ACD00F0FF900506EBF0EDA3F0EEA3F0EFA3F090050AE0FBA3E0FDA3E0FEA3E0FF784537
:203AED007440F20874B6F208749AF2087432F278497440F2087410F20874FDF2087434F255
:203B0D008B828D838EF0EF1230ECAB82AD83AEF0FFD00490050AEBF0EDA3F0EEA3F0EFA305
:203B2D00F0023BF6900506E0FBA3E0FDA3E0FEA3E0FF7845E4F20874A1F20874BCF2087414
:203B4D0033F2784974C0F20874F7F20874BAF2087437F28B828D838EF0EFC0041230ECABF3
:203B6D0082AD83AEF0FF900506EBF0EDA3F0EEA3F0EFA3F090050AE0FBA3E0FDA3E0FEA3D2
:203B8D00E0FF7845E4F20874A1F20874BCF2087433F2784974C0F20874F7F20874BAF20850
:203BAD007437F28B828D838EF0EF1230ECAB82AD83AEF0FFD00490050AEBF0EDA3F0EEA34A
:203BCD00F0EFA3F08023784FE2FE7F00C004C006C0077453C0E07480C0E07480C0E0123576
:203BED00AEE58124FBF581D00490050AE0FBA3E0FDA3E0FEA3E0FF900506E0F546A3E0F510
:203C0D0047A3E0F548A3E0F549EBB54625EDB54721EEB5481DEFB5491990050A74402546EE
:203C2D00F074423547A3F0740F3548A3F0E43549A3F075820BC004122D3CAB827889EBF2EE
:203C4D007F007E007D007845E4F208F208F208F278497464F208E4F208F208F28B828F83E0
:203C6D008EF0ED1230ECAB827889EBF27841EBF208E4F208F208F275820B122BC475820C25
:203C8D00122D3CAB82D0047891EBF2EB60377F007E007D0078457419F208E4F208F208F2AB
:203CAD00784974DCF208E4F208F208F28B828F838EF0EDC0041230ECAB82AD83AEF0FFD0DC
:203CCD00047891EBF2C00478917941E2F309E4F309F309F375820CC004122BC4D004900588
:203CED0006E0F546A3E0F547A3E0F548A3E0F54990073D74E8F07403A3F0E4A3F0A3F0859D
:203D0D0046828547838548F0E549127070AA82AC83AEF0FF7841EAF208ECF208EEF208EF50
:203D2D00F2758208C004122BC490050AE0F54AA3E0F54BA3E0F54CA3E0F54D90073D74E886
:203D4D00F07403A3F0E4A3F0A3F0854A82854B83854CF0E54D127070AA82AB83AEF0FF785A
:203D6D0041EAF208EBF208EEF208EFF2758209122BC478187941E2F309E4F309F309F375F6
:203D8D00820A122BC4D004E54AC39546FCE54B9547FDE54C9548FEE54D9549FF7818E2FA5C
:203DAD007B0074022AFAE43BFB90073DEAF0EBA3F0EB3395E0A3F0A3F08C828D838EF0EF57
:203DCD00127070AC82AD83AEF0FF90050EECF0EDA3F0EEA3F0EFA3F0EFC313FFEE13FEED37
:203DED0013FDEC139005062546F0ED3547A3F0EE3548A3F0EF3549A3F0758203122D3CAC96
:203E0D0082C00412701AD0047818C3E2F5F0740595F0D0044003023EB0C004C004126FA215
:203E2D00AE82AF83900756EEF0EFA3F090027112727EAE82AF83D0048E4AEFF54B3395E0DC
:203E4D00F54CF54D90050EE0FAA3E0FCA3E0FEA3E0FF900701EAF0ECA3F0EEA3F0EFA3F0DF
:203E6D00854A82854B83854CF0E54DC004126C0F85824A85834B85F04CF54DD00490050637
:203E8D00E0FAA3E0FBA3E0FEA3E0FF900506E54A2AF0E54B3BA3F0E54C3EA3F0E54D3FA3C2
:203EAD00F0D004900506E0FBA3E0FDA3E0FEA3E08B828D838EF0C004122080D00490050EAF
:203ECD00E0FBA3E0FDA3E0FEA3E08B828D838EF0C0041220C0758203122D3CAB82AD83AEA5
:203EED00F0FF7818900701E2F0E4A3F0A3F0A3F08B828D838EF0EF126C0F122113758202D9
:203F0D00122D3C12213AE582D004703B758202C004122D3C12213AE582D004702A75820253
:203F2D00C004122D3C12213AE582D0047019C004746AC0E07480C0E07480C0E01235AE1590
:203F4D008115811581D004C004121D6FAF827841EFF208E4F208F208F2758202122BC47565
:203F6D008203122D3C12246ED0048C82122417122468AF827841EFF208E4F208F208F275B1
:0B3F8D008204122BC4121B14025A21E4
:207FE1005246442053694B20322E30206F6E205246443930305000322E30006661696C655A
:208001006420746F20656E61626C65207265636569766572006661696C656420746F20690B
:208021006E697469616C69736520616573000A2A2A50414E49432A2A0000726164696F5F99
:20804100696E697469616C697365206661696C65640062616420626F617264206672657152
:2080610075656E637920256400726164696F5F636F6E666967757265206661696C6564007D
:1205140078677490F2087401F2786974F4F2087401F2E7
:203F9800C022C0E0C0F0C082C083C007C006C005C004C003C002C001C000C0D075D0001051
:203FB80098030240B3AF99900345E06011900346E060030240B38F821212B30240B38F82E9
:203FD800C00712134FD007786BE22401FD08E23400FEBD0009BE04067D007E00800B786BBD
:203FF800E22401FD08E23400FE786DE2B5050708E2B50602803A786BE2247EF58208E234A4
:2040180007F583EFF0786BE22401FE08E23400FFBE0009BF04067E007F00800B786BE22424
:2040380001FE08E23400FF786BEEF208EFF2801B7857E2FE08E2FFBEFF05BFFF02800C0E51
:20405800BE00010F7857EEF208EFF2786B796DC3E3F5F0E295F009E3F5F008E295F0401B8C
:20407800786DE22400FE08E23404FF786BD3E29EF4B3FEB308E29FF4FF8015786D796BE3D3
:20409800F5F0C3E295F0FE09E3F5F008E295F0FFC3EE9411EF94005002D28210990302414E
:2040B8003E786F7971E2F5F0E3B5F00B08E2F5F009E3B5F0028069900505E0602730831E62
:2040D800900345E07018900513E0FFE070089005147401F08050EF14900513F08006900515
:2040F800137408F07871E2247EF58208E2340BF583E0FF7871E22401FD08E23400FEBD00FF
:2041180009BE04067D007E00800B7871E22401FD08E23400FE7871EDF208EEF28F998006C9
:204138009005147401F0D0D0D000D001D002D003D004D005D006D007D083D082D0F0D0E008
:20415800D02232786F7971E2F5F0E3B5F00A08E2F5F009E3B5F00122900514E06003024642
:204178003322AF82C2AC786BE4F208F2786DF208F2786FF208F27871F208F27873F208F230
:204198007875F208F290051404F0C28E740F5589FE4306208E898F821249A6D28E759810D3
:2041B800C282D2AC22AF82C0071245DDAD82AE83D007C3ED9401EE94005004758200228FDD
:2041D800821241E075820122AF82A2AC9210C2AC786FE22401FD08E23400FEBD0009BE04DA
:2041F800067D007E00800B786FE22401FD08E23400FE7871E2B5050708E2B50602804778A2
:204218006FE2247EF58208E2340BF583EFF0786FE22401FE08E23400FFBE0009BF04067E85
:20423800007F00800B786FE22401FE08E23400FF786FEEF208EFF2900514E06024C02212A2
:204258004633D022801B7855E2FE08E2FFBEFF05BFFF02800C0EBE00010F7855EEF208EF1C
:20427800F2A21092AC2278737975E2F5F0E3B5F00C08E2F5F009E3B5F00302438012637AD7
:20429800E58270030243807875E2247EFE08E2340FFF8E828F83E070117F0110AF027F0089
:2042B8007875E4F208F2EF1392AF7875E22401FE08E23400FFEE247EFEEF340FFF7875E249
:2042D800247EF58208E2340FF583E09006DFF09006E07415F07405A3F09006E27477F07401
:2042F80000A3F07460A3F08E828F831266F4E58260157481C0E07480C0E07480C0E012353E
:20431800AE15811581158178777979E2F390051512449E7875E2247EF58208E2340FF58334
:204338007877E0F27875E2247EF58208E2340FF583E4F07F0110AF027F007877E2FD7E0037
:204358000DBD00010E7875E22DF208E23EF27875C3E294FC08E2940340067875E4F208F2BE
:20437800EF1392AF7582012275820022AF83E582900535F0EFA3F012637AE58270030244CB
:20439800897873E22401FE08E23400FF74FCC39EFE74039FFF7878E2FC7D00C3EE9CEF9D67
:2043B80050067873E4F208F2C005C004124ACAAE82AF83D004D005C3EE9CEF9D501B785509
:2043D800E2FE08E2FFBEFF04BFFF01220EBE00010F7855EEF208EFF2227873E2247EF582E0
:2043F80008E2340FF5837878E2F07873E22401FE08E23400FFEE247EFEEF340FFF8E4E8F07
:204418004F755000900535E0FAA3E0FF90074DEAF0EFA3F0E4A3F0900750ECF0EDA3F085CB
:204438004E82854F838550F01271BF7F0110AF027F007878E2FD7E000DBD00010E7873E283
:204458002DF208E23EF27873C3E294FC08E29403400B7873E22404F208E234FCF2EF139298
:20447800AF7873E2247EF58208E2340FF583E4F022900535E0FEA3E0FF78787979E2F38E85
:20449800828F8302449EAF83E582900537F0EFA3F07879E27001221245DDAE82AF837879C8
:2044B800E2FC7D00C3EE9CEF9D501F7879EEF27855E2FE08E2FFBEFF05BFFF02800C0EBE00
:2044D80000010F7855EEF208EFF27879E2FF786FD3E29400F4B3FDB308E29404F4FE8F03BF
:2044F8007C00C3ED9BEE9C5008786FE2FEC3E49EFF786FE2247EFD08E2340BFE7C00900550
:2045180037E0FAA3E0FB90074DEAF0EBA3F0E4A3F0900750EFF0E4A3F08D828E838CF0C0A8
:2045380007C003C0021271BFD002D003D007900537EF2AF0E43BA3F07879E2C39FF27E01EC
:2045580010AF027E007D00786FE22FF208E23DF2786FC308E2940440067870E224FCF2EE48
:204578001392AF7879E26044900537E0FEA3E0FF90074DEEF0EFA3F0E4A3F07879E2FE7F21
:2045980000900750EEF0EFA3F0900B7E75F000C007C0061271BFD006D0077D0110AF027D06
:2045B80000786FEEF208EFF2ED1392AF7F0110AF027F00900514E06007C007124633D00719
:2045D800EF1392AF22A2ACE433FFC2AC786F7971C3E3F5F0E295F009E3F5F008E295F04049
:2045F8001B7871E22400FD08E23404FE786FD3E29DF4B3FDB308E29EF4FE80157871796F0C
:20461800E3F5F0C3E295F0FD09E3F5F008E295F0FEEF24FF92AC8D828E8322900505E060E9
:204638000A308307900345E0700122900514E4F0D29922A2ACE433FFC2AC786B796DE2F5D7
:20465800F0E3B5F00B08E2F5F009E3B5F002803A786DE2247EF58208E23407F583E0FE78D0
:204678006DE22401FC08E23400FDBC0009BD04067C007D00800B786DE22401FC08E2340081
:20469800FD786DECF208EDF280027E00786B796DC3E3F5F0E295F009E3F5F008E295F04020
:2046B8001B786DE22400FC08E23404FD786BD3E29CF4B3FCB308E29DF4FD8015786D796B61
:2046D800E3F5F0C3E295F0FC09E3F5F008E295F0FDC374229CE49D5002C282EF24FF92AC3B
:2046F8008E8222A2ACE433FFC2AC786DE2247EF58208E23407F583E0FEEF24FF92AC8E82E3
:2047180022AF83E582900539F0EFA3F0A2ACE433FFC2AC900539E0FDA3E0FE786DE22DFD97
:2047380008E23EFE530603ED247EF582EE3407F583E0FEEF24FF92AC8E8222AF83E58290AF
:20475800053BF0EFA3F01248CAAE82AF83787AE2FC7D00C3EE9CEF9D5004758200228C03E7
:204778008D02786DD3E29400F4B3FCB308E29404F4FDC3EC9BED9A5010786DD3E29400F448
:20479800B3FBB308E29404F4FA90053BE0FCA3E0FD8C518D52755300786DE2247EFE08E22F
:2047B8003407FF90074DEEF0EFA3F0E4A3F0900750EBF0EAA3F08551828552838553F0C073
:2047D80005C004C003C0021271BFD002D003D004D0058B06787AE2C39EF290053BEB2CF054
:2047F800EA3DA3F07F0110AF027F00786DE22BF208E23AF2786DC308E294044006786EE2F5
:2048180024FCF2EF1392AF787AE2604890053BE0FEA3E0FF7D0090074D747EF07407A3F02E
:20483800E4A3F0787AE2FB7C00900750EBF0ECA3F08E828F838DF0C004C0031271BFD00322
:20485800D0047F0110AF027F00786DEBF208ECF2EF1392AF7F0110AF027F00786B796DC375
:20487800E3F5F0E295F009E3F5F008E295F0401B786DE22400FD08E23404FE786BD3E29D19
:20489800F4B3FDB308E29EF4FE8015786D796BE3F5F0C3E295F0FD09E3F5F008E295F0FEA4
:2048B800C374229DE49E5002C282EF1392AF75820122A2ACE433FFC2AC786B796DC3E3F53F
:2048D800F0E295F009E3F5F008E295F04017786B796DE3F5F0C3E295F0FD09E3F5F008E25F
:2048F80095F0FE8019786DD3E29400F4B3FBB308E29404F4FC786BE22BFD08E23CFEEF246B
:20491800FF92AC8D828E83221248CAAE82AF83E4C39EFE74049FC423CEC423541F6ECE5481
:204938001FCE6ECEFF900756EEF0EFA3F090006412727EAE82E583A2E7CE33CE33CE5401AE
:204958008E8222AE82AF83BE0A11BF000E75820DC007C0061241E0D006D0078E821241E051
:2049780090000022AF827E00BE0900501DEE75F003A424A4F582748035F0F583E493FDEF5D
:20499800B50504758201220E80DE75820022AF827E00BE0900501BEE75F003A424A4F58288
:2049B800748035F0F583E493FDEFB5050280030E80E090053DEEF0BE090690053D7406F085
:2049D80090053DE075F003A424A4FD748035F0FE8D828E83A3E493F58D74F4558EFC8D8213
:2049F8008E83A3A3E4934CF58E900756EFF0E4A3F090007D12727EAF8302119578737975FD
:204A1800C3E3F5F0E295F009E3F5F008E295F0401B7875E224FCFE08E23403FF7873D3E244
:204A38009EF4B3FEB308E29FF4FF801578757973E3F5F0C3E295F0FE09E3F5F008E295F04E
:204A5800FF7867C3E2F5F0EE95F008E2F5F0EF95F05004758201227582002278737975C3FD
:204A7800E3F5F0E295F009E3F5F008E295F0401B7875E224FCFE08E23403FF7873D3E29E09
:204A9800F4B3FEB308E29FF4FF801578757973E3F5F0C3E295F0FE09E3F5F008E295F0FF8D
:204AB8007869C3E29E08E29F5004758201227582002278737975C3E3F5F0E295F009E3F5FE
:204AD800F008E295F0401B7875E224FCFE08E23403FF7873D3E29EF4B3FEB308E29FF4FFE5
:1C4AF800801578757973E3F5F0C3E295F0FE09E3F5F008E295F0FF8E828F8322C1
:208081006572726F72207768696C6520747279696E6720746F2064656372797074206461BC
:1E80A100746100012C02029602042C0009960013600126B001392B08739608FFF30892
:20820F0000000000000000000000000000000000000000000000000000000000000000004F
:20822F0000000000000000000000000000000000000000000000000000000000000000002F
:20824F0000000000000000000000000000000000000000000000000000000000000000000F
:20826F000000000000000000000000000000000000000000000000000000000000000000EF
:0605260090063D740AF08E
:204B14007861E2FE08E2FF7864E2FD7C007860E2FB8B548C557863E2FB8B568C57785FE2FE
:204B3400FB7A00C006C007C005C004C054C055C056C057C003C00274BFC0E07480C0E07420
:204B540080C0E012083FE58124F3F581788EE2FE7F00C007C00612281AAC82AD83D006D08B
:204B740007785DE2F55608E2F557785BE2F55408E2F5557859E2F55808E2F5597857E2F5D2
:204B94005A08E2F55B7855E2F55C08E2F55D7851E2F55E08E2F55F7853E2FA08E2FBC006A3
:204BB400C007C004C005C056C057C054C055C058C059C05AC05BC05CC05DC05EC05FC0029D
:204BD400C00374EBC0E07480C0E07480C0E012083FE58124EBF5817861E4F208F222900632
:204BF4003BE030E003024B1422AF827E007885900756E2F008E2A3F08F828E8312727EAE36
:204C140082AF837883E22EFE08E23F8E82F58322AF82787BE2F560787CE2FC08E2FD7899CB
:204C3400E230E6467401B560107881E2FA08E2FB787CEAF208EBF280467402B56002800541
:204C54007403B5600F787B7403F2787C7401F208E4F2802B787BE4F27898E2FA08E2541F53
:204C7400FB787CEAF208EBF28015787B7402F27898E2FA08E2541FFB787CEAF208EBF2780F
:204C94007BE2B40203EF60047B0080027B01EB24FF920A787BE26002C20B7815E220E101FF
:204CB40022787C79E2D3E29CF4B3F3B308E29DF409F3787BE2B5606EC0077883E2FA08E27A
:204CD400FB9007737402F0E4A3F08A828B83C003C0021275DFAE82AF83D002D00378E2C3B5
:204CF400E2F5F0EE95F008E2F5F0EF648063F08095F0D0074030E49AFAE49BFB90077374B5
:204D140002F0E4A3F08A828B83C0071275DFAB82AE83D00778E2C3E29B08E264808EF06351
:204D3400F08095F0504B7E00787BE2FA7B00AC607D00C007C006C002C003C004C005742A45
:204D5400C0E07481C0E07480C0E012083FE58124F7F58178E2E2C0E008E2C0E0743DC0E06F
:204D74007481C0E07480C0E012083FE58124FBF58122AE82AF837887C3E29E08E29F5008FB
:204D94007887E4F208F2800A7887E2C39EF208E29FF2787CC3E2F5F0EE95F008E2F5F0EF48
:204DB40095F05003024FEF787BE2FC7D000CBC00010D90075E7404F0E4A3F08C828D83C0F1
:204DD40007C006127327AC82D006D007787BECF2787CD3E29EF4B3FEB308E29FF4FF787B8C
:204DF400E26006787BE2B40210787EE2FC08E2FD787CECF208EDF2800E7881E2FC08E2FDFC
:204E1400787CECF208EDF2787BE26006787BE2B40125C007C006121BB8122005D006D00785
:204E34007818C3E2F5F0740195F0500B7892E4F208F27896F208F2787BE26003024FE2C0F0
:204E540006C0077889E2FC7D00788EE2F5618D62ECC39561FEED9562FFBE640ABF0007D0A0
:204E740007D006024FE2D007D006C006C007C007C006C005C004788AE2C0E008E2C0E008A8
:204E9400E2C0E008E2C0E090333375F073743F126EFF85826385836485F065F566E581245D
:204EB400FCF581D004D005D006D007788FE2F58208E2F583C005C0041276A7AA82AB83AE94
:204ED400F0FFD004D005C007C006C005C004C002C003C006C00790000075F0A07440126E35
:204EF400FF85826785836885F069F56AE58124FCF581D004D005D006D0077881797EE3C59A
:204F1400F0E225F0FE09E3C5F008E235F0FFEE2EFEEF33FF8E828F83C005C0041276A7AA2A
:204F340082AB83AEF0FFC002C003C006C0078567828568838569F0E56A12780BAA82AB8304
:204F5400AEF0FFE58124FCF581C002C003C006C0078563828564838565F0E566127586AAE0
:204F740082AB83AEF0FFE58124FCF581D004D005788AEAF208EBF208EEF208EFF2788FE4AC
:204F9400F208F2ECC39561FCED9562FD8C828D8312769AAC82AD83AEF0FFC006C004C00505
:204FB400C006C007788AE2F58208E2F58308E2F5F008E212724EE58124FCF581D006AF8205
:204FD40090063AEFB40100E433F0D007D006C20AC20B7887E4F208F2024DA6787CE2C39E01
:204FF400F208E29FF222787BE2FE7F0074022EFEE43FFF90075E7404F0E4A3F08E828F8302
:20501400127327AE82787BEEF222122468E58224EB4005788EE4F22212281AE5828583F0A1
:20503400249CFEE5F034FFFFC3E49E74808FF063F08095F0400F788EE2600A788EE2FD7889
:205054008E14F2804CC3740A9E74808FF063F08095F0500C788EE2FD788E740A2DF280319D
:20507400C374059E74808FF063F08095F0500C788EE2FD788E74052DF28016C3E49E7480C9
:205094008FF063F08095F05008788EE2FF788E04F27889E2FE7F00788EE2FC7D00EEC39CDC
:2050B400FEEF9DFFC3EE9414EF6480948050097889E2FF788E24ECF222300D0990063DE4B1
:2050D400F0C20D800790063DE02401F090063DE0FFBF02005004D2B78006A20C92B7B20C23
:2050F400EF24D7400302518390063D7405F0125F0FE58230E058787CE2FE08E2FF7881C395
:20511400E29E08E29F50177883D3E29EF4B3FCB308E29FF4FD787CECF208EDF28008787CB8
:205134007401F208E4F27815E230E122787CE2C0E008E2C0E0C006C0077449C0E07481C0D5
:20515400E07480C0E012083FE58124F9F5817815E230E1157463C0E07481C0E07480C0E040
:2051740012083F158115811581758200121C1B90063DE0603D121D63AF827E00785FE290E6
:205194000756F0E4A3F0900003C007C00612727EAC82AD83D006D007EC2FFCED3EC313CC26
:2051B40013CCC313CC13CCFD785FECF27861E4F208F290063DE024FA501790074AE4F090A3
:2051D400074B7404F0E4A3F090006375F060127197781590063BE2F0D20E90063EE02401CF
:2051F400F0E0FFBF040812501E90063EE4F0229002FF75F0001277F3E5828583F02401FEC3
:20521400E435F0FF90074D74FFF07402A3F0E4A3F0900750EEF0EFA3F090009C75F0601261
:2052340071BF90063C7401F022AF82BF02004017EF24BA401290053EE0FEBE520A90053FCA
:20525400E0FEBE540280047582012290074D743EF07405A3F0E4A3F0900750EFF0E4A3F064
:205274009002FF75F000C0071271BFD007EF24FFF582E43402F583E4F09002FF7441F078A7
:2052940014EFF29003467401F09000EC74FCF090053E1205691213E4120596E582FF600A12
:2052B4007812EFF290053E12126175820022125EB578E5E582F208E583F278E579E7E2F32F
:2052D40008E209F378FF762A78FFB62A0280157472C0E07481C0E07480C0E01235AE158195
:2052F400158115817813E2B441028015747FC0E07481C0E07480C0E01235AE158115811583
:20531400811213E490063BE06008124BF290063BE4F09002ECE06014900504E0600E900396
:2053340045E070089002ECE4F0120985121BA8122113125EB5AA82AB83782C743EF208746C
:2053540005F29000E475F060C003C002121C54E582D002D003700302554BC002C003D20D7D
:20537400758201C003C002121C1BD002D003C002121D63AB82D0027A00785FE2900756F04B
:20539400E4A3F0900007C003C00212727EAC82AD83D002D003EC2BFCED3AC423CCC4235439
:2053B4001F6CCC541FCC6CCC785FECF27861E2FC08E2FD0CBC00010D7861ECF208EDF278CC
:2053D40087E4F208F278E4E2B40200D003D00250030252DC78E4E27D0024FCFCED34FFFD52
:2053F400EC243EFCED3405FD90074DECF0EDA3F0E4A3F09007507404F0E4A3F09000987512
:20541400F060C003C0021271BFD002D00378E4E214141414F27898E2FC08E2541F4C7041F4
:2054340078E4E2603C78E4E2B4042090074D743EF07405A3F0E4A3F078E4900750E2F0E466
:20545400A3F090006375F0601271BF7861E2FC08E2FD1CBCFF011D7861ECF208EDF2025226
:20547400DC7898E2FC08E2541FFD4C70030252DC78E4E2F582C003C002124C24D002D003A4
:2054940078E5EAF208EBF27899E2C4035401FDBD010C78E4E2F58212523DE582703F78E43C
:2054B400E270030252DC7899E230E5030252DC7899E2235401FD9002F9743EF07405A3F077
:2054D4009002FBEDF078E4E2F5821211CEE58260030252DC900345E060030252DC750C3EA4
:2054F400750D0578E4E2F582120859AC82AD83789AE2FA08E2FBECB50217EDB50313D2B6BE
:2055140078E47978E2F390053E124384C2B60252DC785DE2FC08E2FDBCFF06BDFF03025293
:20553400DC785DE2FC08E2FD0CBC00010D785DECF208EDF20252DC125EB5AC82AD8378E561
:20555400D3E29CF4B3FAB308E29DF4FB8A828B83C005C004C003C002124D86D002D003D09A
:2055740004D00578E5ECF208EDF278E7D3E29CF4B3FEB308E29DF4FFC3E49E74809F501A58
:20559400C005C004C003C0021250CDD002D003D004D00578E7ECF208EDF27891E2607AC0C3
:2055B40003C002121D69AF82D002D0037891C3E2F5F0EF95F0500B7892E22AF208E23BF223
:2055D40080367892E4F208F27896E2F5F008E245F07025126FA2AE82AF837894900766E22E
:2055F400F008E2A3F08E828F831273FBE5828583F07896F208E5F0F278947996E3C5F0E2C5
:2056140025F0FE09E3C5F008E235F0FF7892C3E29E08E29F50030252DC787BE26011200AEB
:20563400030252DC787BE2B4020280030252DC300B030252DC7887E2F5F008E245F060032D
:205654000252DC200D07121D45E5827007121D26E58260117883E2FE08E2FF7887EEF208A8
:20567400EFF20252DC121D69AF827E007860E2900756F0E4A3F0900003C007C00612727E8E
:20569400AC82AD83D006D007EC2FFCED3EC313CC13CCC313CC13CCFD7860ECF290063AE044
:2056B40060030252DC787C7983C3E3F5F0E295F009E3F5F008E295F050030252DC787C7931
:2056D40083E3F5F0C3E295F0FE09E3F5F008E295F0FF78859006FAE2F008E2A3F08E828F89
:2056F40083126B82AE82AF83BE140050030252DCEE24FBFFC00712637AE582D007600EBF30
:20571400100050030252DC8F06EE24F0FF7880C3E29F50047880E2FF90063CE0605A9000E7
:205734009C75F060C0071277F3AD82AE83D0078F037C00C3EB9DEC9E403E90009C75F06028
:20575400C0071277F3AD8278E4EDF290074D749CF0E4A3F07460A3F0900750EDF0E4A3F08B
:2057740090053E75F0001271BFD0077899E24420F290063CE4F080529002F4743EF0740562
:20579400A3F08F82C007120CD3AE82D00778E4EEF2EE6013C007121180AE82D0077899EE85
:2057B40013E292E5F280067899E254DFF2750C3E750D0578E4E2F582C007120859AD82AEC7
:2057D40083D007789AEDF208EEF278E47980C3E2F5F0E395F05019C0077495C0E07481C0AD
:2057F400E07480C0E01235AE158115811581D007787BE2B40203148001E4789913E292E60E
:20581400F2C007121179AE82D0077899EE13E292E7F2787BE2704478E4E2703F300E3CBF0A
:2058340004004037C20E90074D745FF0E4A3F07460A3F09007507404F0E4A3F090053E7576
:20585400F0001271BF78E47404F27898E4F208E254E0F27899E2547FF2807612637AE58242
:20587400604778E4E2FE7F0074042EFEE43FC4CEC4540F6ECE540FCE6ECE30E30244F00E32
:20589400EEC454F0F582124BFDAE82AF83787CE2C39EFE08E29FFF7898EEF208EF541FF5BF
:2058B400F0E254E045F0F2802878E4E22404F582124BFDAE82AF83787CE2C39EFE08E29FA8
:2058D400FF7898EEF208EF541FF5F0E254E045F0F2121B9812211378E4E2243EFEE4340573
:2058F400FF7D0090074D7498F0E4A3F07460A3F09007507404F0E4A3F08E828F838DF012E3
:2059140071BF78E4E2600E7898E2FE08E2541FFF4E6002D2B678E4E27002D20B7883E2FEAB
:2059340008E2FF7887EEF208EFF27889E2FE7F00788EE2FC7D00EEC39CFEEF9DFFBE6405E4
:20595400BF0002801778E4E22404F582124BFDAE82AF83788FE22EF208E23FF278E4E224BC
:2059740004FF7881E2FD08E2C313CD13CDFE787CE22DFD08E23EFE7834743EF2087405F2E4
:205994007836EDF208EEF28F82121FC8E582701A78E4E260157898E2FE08E2541FFF4E60D6
:2059B400097899E220E5031211877891E2600B7892E4F208F27896F208F278E4E2600E78D7
:2059D40098E2FE08E2541FFF4E6002C2B6787EE2FE08E2C313CE13CEFF787CC3E2F5F0EE07
:2059F40095F008E2F5F0EF95F05016124A14E582600C124A73E582700812427E80F41242DA
:205A14007E121BA81221131220050252DC121D6FAF82900762EFF0E4A3F0A3F0A3F090039B
:205A3400E8E4F5F012738FAC82AD83AEF0FF90073DECF0EDA3F0EEA3F0EFA3F09012007548
:205A5400F07AE4127070AC82AD83AEF0FF74082CFCE43DFDE43EFEE43FFFEDC4CCC4540F4F
:205A74006CCC540FCC6CCCFDEEC454F04DFDEFC4CEC4540F6ECE540FCE6ECE74012CFEE462
:205A94003DFF7885EEF208EFF2900756EEF0EFA3F090000DC007C00612727EE5828583F018
:205AB400D006D007240DFCE435F0FD7883ECF208EDF2900503E0602D78807474F2EE2EFE41
:205AD400EF33FF7885EEF208EFF2EE2EFEEF33FFEE2EFEEF33FFEE2CFCEF3DFD7883ECF23D
:205AF40008EDF28005788074F8F278837981E225E0F308E23309F37885900762E2F008E236
:205B1400A3F0E4A3F0A3F07880E2FC7D007E007F008C828D838EF0EF12738F85826B85836B
:205B34006C85F06DF56E7883E2FA08E2FB7E007F00900762E56B2AF0E56C3BA3F0E56D3ED5
:205B5400A3F0E56E3FA3F0900003E4F5F012738FAC82AD83AEF0FF900641ECF0EDA3F0EEED
:205B7400A3F0EFA3F078947438F2087401F27891E2603A784574A8F2087403F208E4F2083C
:205B9400F27849ECF208EDF208EEF208EFF28C828D838EF0EF1230ECAC82AD83AEF0FF9064
:205BB4000641ECF0EDA3F0EEA3F0EFA3F0900641E0FCA3E0FDA3E0FEA3E0FFC3EC94A8ED1D
:205BD4009461EE9400EF9400401B7818C3E2F5F0740195F0500F90064174A8F07461A3F09E
:205BF400E4A3F0A3F075820F122D3CAC82AD83AEF0FF900762ECF0EDA3F0EEA3F0EFA3F0B3
:205C140090003EE4F5F012738F85826B85836C85F06DF56E900641E0FAA3E0FBA3E0FEA347
:205C3400E0FFC3E56B9AE56C9BE56D9EE56E9F503975820F122D3CAC82AD83AEF0FF90075A
:205C540062ECF0EDA3F0EEA3F0EFA3F090003EE4F5F012738FAC82AD83AEF0FF900641EC06
:205C7400F0EDA3F0EEA3F0EFA3F0900641E0FCA3E0FDA3E0FEA3E0FFC374FF9C741F9DE481
:205C94009EE49F500F90064174FFF0741FA3F0E4A3F0A3F0900641E0FCA3E0FDA3E0A3E0CD
:205CB400787EECF208EDF2782BE27E0024F6FFEE34FFFE9007737402F0E4A3F08F828E83D1
:205CD400C005C0041275DFAE82AF837885900756E2F008E2A3F08E828F8312727EAE82AF23
:205CF40083D004D0057883E22EF208E23FF27883D3E29CF4B3FCB308E29DF4FD788590069F
:205D1400FAE2F008E2A3F08C828D83126B82AE82AF8390063FEEF0EFA3F07880E2FC7D001F
:205D3400C3EC9EED9F500890063FECF0EDA3F090063FE0FEA3E08E8202118A7881E2C0E08F
:205D540008E2C0E074AAC0E07481C0E07480C0E012083FE58124FBF581900001125E3F78B2
:205D74007EE2C0E008E2C0E074BEC0E07481C0E07480C0E012083FE58124FBF581900001A5
:205D9400125E3F7880E2FE7F00C006C00774D3C0E07481C0E07480C0E012083FE58124FB6E
:085DB400F581900001025E3F41
:2080BF004C2F5220525353493A2025752F257520204C2F52206E6F6973653A2025752F2523
:2080DF007520706B74733A2025752000207478653D2575207278653D2575207374783D25A7
:2080FF0075207372783D2575206563633D25752F257520637263653D25752074656D703D06
:20811F0025642064636F3D25750A0054444D3A2025752F2575206C656E3D25752000206404
:20813F00656C74613A2025640A0054444D3A206368616E67652074696D696E672025752F57
:20815F0025750A0054444D3A207363616E6E696E670A00737461636B20626C6F776E0A0060
:20817F0070646174612063616E617279206368616E6765640A006F76657273697A65642049
:20819F0074646D207061636B65740073696C656E63655F706572696F643A2025750A0074AC
:2081BF00785F77696E646F775F77696474683A2025750A006D61785F646174615F706163E2
:1081DF006B65745F6C656E6774683A2025750A006D
:205DBC00C022C0E0C0F0C082C083C007C006C005C004C003C002C001C000C0D075D00075AA
:205DDC00910412139CE51D6002151DD0D0D000D001D002D003D004D005D006D007D083D05C
:205DFC0082D0F0D0E0D02232AE82AF83C3EE94F6EF94094004751DFF2274092EFEE43FFF86
:205E1C009006FA740AF0E4A3F08E828F83126B82AE828E1D2285821D22E51DB40100E433BF
:205E3C00F58222125E04125E35E58260F922C022C0E0C0F0C082C083C007C006C005C004E5
:205E5C00C003C002C001C000C0D075D00075C8047401251EF51EE4351FF51F900505E06019
:205E7C000312415BD0D0D000D001D002D003D004D005D006D007D083D082D0F0D0E0D02212
:205E9C0032AFCDAECCEFB5CDF88F05E4FFFCEE4207EC42058F828D8322AE1EAF1FC007C014
:205EBC0006125E9DAC82AD83D006D007EEB51EE9EFB51FE5EEC40354F8FF7E00EDC403CC58
:205EDC00C40354076CCC5407CC6CCCFDEC4206ED42078E828F83227592407593B075910439
:175EFC00AEE64306808EE675CA0075CB0075C804D2AD2285CC822268
:205F1300E58290064DF0E0FFBF03028005BF07004004758201228F0674035E2402C403543D
:205F3300F8FE90064BE0FCA3E0C454F0CCC4CC6CCC54F0CC6CFD90064EECF0EDA3F075A7A7
:205F53000275E90075EA0053D2A775D10375C90575D601900649E0FCA3E0FD900650ECF0CE
:205F7300EDA3F0900650E0F5CA900651E0F5CB75CF008ECEE4F5CCF5CDEF30E2129006458D
:205F9300E0FEA3E0FF900650EEF0EFA3F08010900647E0FEA3E0FF900650EEF0EFA3F075C0
:205FB300D10475C90675D600900650E0F5CA900651E0F5CB90064EE0F5CE90064FE0F5CF4E
:205FD30075CC0075CD0090064DE030E212900647E0FEA3E0FF900650EEF0EFA3F0801090A1
:205FF3000645E0FEA3E0FF900650EEF0EFA3F075D10675C98875D600900650E0F5CA900625
:2060130051E0F5CB90064EE0F5CE90064FE0F5CF75CD0075CC0053D3A743D25875EA0090C0
:20603300064DE0F5E9AEE94306088EE9AEE74306208EE7E5D330E6FB75E90075EA0053D2BF
:08605300A753D3A775820022B8
:20605B00AF83E582900655F0EFA3F0900654E0FFBF03004004758201228F060E0EEEC403E0
:20607B0054F8FE75A70275E90075EA0053D2A775D10375C90575D600900655E0FCA3E0FDF6
:20609B00900657ECF0EDA3F0900657E0F5CA900658E0F5CB75CF008ECE75CC0075CD0075EA
:2060BB00D10475C90675D60075CA0075CB0075CF0075CE1075CC0075CD0075D10675C988B6
:2060DB0075D600900652E0FCA3E0FD900657ECF0EDA3F0900657E0F5CA900658E0F5CB753E
:2060FB00CF008ECE75CD00EF600575CC10800375CC0053D3A743D25875EA048FE9ADE943C1
:20611B0005048DE9ADE94305088DE9ADE74305208DE7E5D330E6FBEF602053D2A775D106C9
:20613B0075CC0075CE1053D38743D240AEE77F004306208EE7E5D330E6FB75E90075EA0036
:0A615B0053D2A753D3A77582002288
:20616500E582900663F0E0FFBF03028005BF07004004758201228F0674035E2402C40354D3
:20618500F8FE900661E0FCA3E0FD8C02C454F0CAC4CA6ACA54F0CA6AFB900664EAF0EBA3BA
:2061A500F01CBCFF011D900661ECF0EDA3F075A70275E90075EA0053D28775D10375C9058F
:2061C50075D60090065FE0FCA3E0FD900666ECF0EDA3F0900666E0F5CA900667E0F5CB7519
:2061E500CF008ECEE4F5CCF5CDEF30E212900659E0FEA3E0FF900666EEF0EFA3F08010902A
:20620500065BE0FEA3E0FF900666EEF0EFA3F075D10475C90675D600900666E0F5CA900652
:2062250067E0F5CB75CE1075CF0075CC0075CD0075D10575C90775D60090065DE0FEA3E009
:20624500FF900666EEF0EFA3F0900666E0F5CA900667E0F5CB75CE1075CF0075CC0075CD8C
:2062650000900663E030E21290065BE0FEA3E0FF900666EEF0EFA3F08010900659E0FEA36F
:20628500E0FF900666EEF0EFA3F075D10675C98875D600900666E0F5CA900667E0F5CB75B4
:2062A500CE1075CF0075CD0075CC0053D38743D278900663E030E20575EA01800375EA02C6
:2062C500900663E0F5E9AEE94306088EE9AEE74306208EE7E5D330E6FB900661E0F5F0A308
:2062E500E045F0607C53E9F753D28775D10375D60175CC0075CD0075D104900664E0F5CECA
:20630500900665E0F5CF75D10590065BE0FEA3E0FF900666EEF0EFA3F0900666E0F5CA90B6
:206325000667E0F5CB900664E0F5CE900665E0F5CF75CC0075CD0075D106900664E0F5CEA3
:20634500900665E0F5CF53D38743D278AEE94306088EE9AEE77F004306208EE7E5D330E640
:11636500FB75E90075EA0053D28753D38775820022FD
:2063760053E7DF329006CAE0F58222E5829006CBF0E09006CAF022123509E5828583F0909A
:206396000668F0E5F0A3F022AF83E5829006CEF0EFA3F09006CCE0FEA3E0FF9006CEE0FC8E
:2063B600A3E0FD7B108E828F83E493FAA3AE82AF838C828D83EAF0A3AC82AD839006CEECDB
:2063D600F0EDA3F0DBDF9006CEECF0EDA3F022E5829006D0F07582001263819006D0E0FFAC
:2063F600740F5FFE7004758201221EC007C00612638DD006900668E0FCA3E0FD90065274E0
:206416006AF07406A3F0900654EEF08C828D8312605BE582D007600475820022EFC4540F7B
:20643600FF53070FBF00028005BF011480229006CC74FFF07481A3F090068A12639E801012
